:103EA60046313A4576616C756174650046323A462C
:103EB6006F7265636173740057656C636F6D65201F
:103EC600746F207573650073657828303A626F7970
:103ED60020313A6769726C290066617468657227D9
:103EE6007320686569676874006D6F74686572270A
:103EF6007320686569676874004D61785F686569F5
:103F060067687420004D696E5F686569676874202C
:103F16000046313A6E657720646174610046323A34
:103F260076696577206F6C64006368696C642063EA
:103F36006F64653A20317E004C2D413A20657863E6
:103F46006573736976652074616C6C6E6573730056
:103F56004C2D413A206D656469616E2074616C6C0C
:103F66006E657373004C2D413A207374756E7465DB
:103F760064004C2D413A207365766572656C792034
:103F86007374756E74656400572D413A20706F73B3
:103F96007369626C65207269736B206F66206F7639
:103FA600657277656967687400572D413A206D65BB
:103FB6006469616E2077656967687400572D413AB8
:103FC60020756E64657277656967687400572D4160
:103FD6003A207365766572656C7920756E646572D4
:103FE60077656967687400572D4C3A206F62657370
:103FF6006500572D4C3A206F76657277656967685C
:104006007400572D4C3A20706F737369626C65208B
:104016007269736B206F66206F7665727765696764
:10402600687400572D4C3A206D656469616E20777F
:10403600656967687400572D4C3A2077617374651B
:104046006400572D4C3A207365766572656C79204D
:1040560077617374656400572D4C3A204E6F207358
:1040660074616E6461726400424D493A206F626504
:10407600736500424D493A206F76657277656967C8
:10408600687400424D493A20706F737369626C65BB
:10409600207269736B206F66206F7665727765692B
:1040A60067687400424D493A206D656469616E2007
:1040B60077656967687400424D493A207761737481
:1040C600656400424D493A207365766572656C7980
:1040D6002077617374656400424D493A206F6265CA
:1040E6007369747900424D493A207468696E6E6549
:1040F600737300424D493A20736576657265207484
:1041060068696E6573730073657820303A626F79FB
:1041160020313A6769726C00796561722020204609
:10412600313A456E746572006D6F6E74680077651E
:10413600656B006865696768742028636D29007778
:10414600656967687420286B6729007365783A206B
:10415600006769726C00626F79006D6F6E74683A01
:1041660020007765656B3A20006865696768743A70
:104176002000636D007765696768743A20006B6795
:1041860000686F7572006D696E757465007365639E
:104196006F6E6400303A636C6F736520313A6F70EE
:1041A600656E000000000000000000000000000036
:0341B60000000006
:10574F00060A00000000000044001B0000000001DA
:10575F001004410034004100350041004900410070
:10576F003700440050000000004400030000000018
:10577F004100420041001F004100020041004F0064
:10578F0041004800410036000108000109004100B6
:06579F00000041000100C2
:1055C700125A0BC2B5438430C2CAC28EC28CD2AF44
:1055D700C2051259F27F0112590F12599E7BFF7AA9
:1055E7003E79A67D011259377BFF7A3E79B27D025B
:1055F70012593712001E125691C2CA300104C20155
:1056070080D8EF24F3600F14601114601324037023
:10561700C91231DE80C412517480BF12554580BA59
:055627001252EE80B5F7
:03000B0002562C6E
:10562C00C0E0C0F0C083C082C0D075D000C000C044
:0D563C0001C002C003C004C005C006C007C5
:105649000508E508C39403401E750800AF84530795
:105659000FEF640F60111258E1AF8453070FEF6425
:0D5669000F6004C202C28C758AB0758C3CC3
:10567600D007D006D005D004D003D002D001D00088
:0B568600D0D0D082D083D0F0D0E03232
:03001B0002595D2A
:04595D00C0E0C0D016
:105961000509E509C39510400A750900C2B54384CC
:0959710020C28E758BB0758D3CCF
:05597A00D0D0D0E032A6
:03002B000256F189
:1056F100C0E0C0F0C083C082C0D075D000C000C07F
:0D57010001C002C003C004C005C006C007FF
:10570E00900000E004F0E0C394C84017E4F0D2012A
:10571E007D01FF1258397BFF7A3E79BE7D01125909
:06572E0037C2CA53C87F18
:10573400D007D006D005D004D003D002D001D000C9
:0B574400D0D0D082D083D0F0D0E03273
:03007300024E51E9
:104E5100C0E0C0F0C083C082C0D075D000C000C027
:0D4E610001C002C003C004C005C006C007A8
:104E6E00900001E004F0E0C394165003024F4BE4AF
:104E7E00F0A3E004F0E0B43C1AE4F090001FE0046C
:104E8E00F0E0B43C0EE4F0900042E004F0E0B41820
:104E9E0002E4F030017B7DC0E4FF125839900042ED
:104EAE00E075F00A844430FD7F01125839900042BB
:104EBE00E075F00A84E5F04430FD7F011258397D2B
:104ECE003A7F0112583990001FE075F00A84443081
:104EDE00FD7F0112583990001FE075F00A84E5F04D
:104EEE004430FD7F011258397D3A7F0112583990B6
:104EFE000002E075F00A844430FD7F0112583990AB
:104F0E000002E075F00A84E5F04430FD7F0112588E
:104F1E003930002990004FE0FF900042E0B5071DA8
:104F2E00900048E0FF90001FE0B50711900036E0BA
:104F3E00FF900002E0B50705D2051259F253917F9A
:104F4E00D007D006D005D004D003D002D001D000B7
:0B4F5E00D0D0D082D083D0F0D0E03261
:105174007D01E4FF1258397BFF7A3E79CD7D01121F
:1051840059377DC0E4FF1258391256918F39E539E9
:1051940064016004E53970F17D01E4FF1258397B44
:1051A400FF7A3E79DF7D011259377DC0E4FF125842
:1051B400391252458F308E2F8D2E8C2D7D01E4FFB8
:1051C4001258397BFF7A3E79EF7D011259377DC041
:1051D400E4FF1258391252458F348E338D328C319C
:1051E4008F3E8E3D8D3C8C3B853042852F41852EF4
:1051F40040852D3FAF391257F18F388E378D368C5D
:10520400357D01E4FF1258397BFF7A3E79FF7D0139
:105214001259377C401254BA7B007A00790A12572B
:10522400A67BFF7A3F790B7D021259377CC012545A
:10523400BA7B007A00790A1257A6125691BF0CFA6B
:015244002247
:1031DE00E490005BF0A3F0785D7C007D017BFF7ACC
:1031EE004179A9FE7F10123DB87D01E4FF125839D6
:1031FE007BFF7A3F79177D011259377BFF7A3F7932
:10320E00237D0212593712569190005CEFF0640C38
:10321E006004E0B40DD37D01E4FF1258397BFF7AD0
:10322E003F792F7D011259377D357F011258397D37
:10323E00C0E4FF12583912569190005BEFF0D39410
:10324E000550D3E060D090005BE014F0A3E024F3CF
:10325E00600D04701290005BE0FF12464B800890E8
:10326E00005BE0FF124825900050E0FCA3E0FDA3B8
:10327E00E0FEA3E0F5318E308D2F8C2E900034E0E1
:10328E00F532A3E0F533900049E0FF124C1B90009D
:10329E005D123E8E900003E0FCA3E0FDA3E0FEA3D2
:1032AE00E0F5318E308D2F8C2E900034E0F532A368
:1032BE00E0F533900049E0FF124D36900061123E6A
:1032CE008E900034E0D394185036E4FFFE7D347CAB
:1032DE0042900050E0F8A3E0F9A3E0FAA3E0FB125D
:1032EE003B38401CE4FFFE7DDC7C42900050E0F851
:1032FE00A3E0F9A3E0FAA3E0FB123B386041403FA4
:10330E00900034E0D394184074E4FFFE7D827C423A
:10331E00900050E0F8A3E0F9A3E0FAA3E0FB123B23
:10332E0038405AE4FFFE7DF07C42900050E0F8A356
:10333E00E0F9A3E0FAA3E0FB123B386002503E90A6
:10334E000003E0FCA3E0FDA3E0FEA3E0F5318E3028
:10335E008D2F8C2E900050E0FCA3E0FDA3E0FEA389
:10336E00E0F5358E348D338C32900034E0F53690A6
:10337E000049E0FF124464900065123E8E900003F7
:10338E00E0FCA3E0FDA3E0FEA3E0F5318E308D2F2F
:10339E008C2E900050E0FCA3E0FDA3E0FEA3E0F530
:1033AE00358E348D338C32900034E0F536A3E0F553
:1033BE0037900049E0FF124996900069123E8EE464
:1033CE00FFFE7D407C4090005DE0F8A3E0F9A3E0B5
:1033DE00FAA3E0FB123B38601D401BE58460047FBE
:1033EE000180027F008F847D01E4FF1258397BFF3C
:1033FE007A3F793E806AE4FFFE7D807CBF90005D5F
:10340E00E0F8A3E0F9A3E0FAA3E0FB123B38400F8B
:10341E007D01E4FF1258397BFF7A3F79568041E4F3
:10342E00FFFEFD7CC090005DE0F8A3E0F9A3E0FA9A
:10343E00A3E0FB123B38400F7D01E4FF1258397BAD
:10344E00FF7A3F796B8019E58460047F0180027FEB
:10345E00008F847D01E4FF1258397BFF7A3F797823
:10346E001257A6125691BF0CFA438410E4FFFE7D4C
:10347E00807C3F900061E0F8A3E0F9A3E0FAA3E0BE
:10348E00FB123B38601D401BE58460047F01800207
:10349E007F008F847D01E4FF1258397BFF7A3F79DC
:1034AE008E806AE4FFFE7D807CBF900061E0F8A311
:1034BE00E0F9A3E0FAA3E0FB123B38400F7D01E4F4
:1034CE00FF1258397BFF7A3F79AF8041E4FFFEFD52
:1034DE007CC0900061E0F8A3E0F9A3E0FAA3E0FB62
:1034EE00123B38400F7D01E4FF1258397BFF7A3FC3
:1034FE0079C28019E58460047F0180027F008F8489
:10350E007D01E4FF1258397BFF7A3F79D31257A61B
:10351E00125691BF0CFA438410900034E0D39418E5
:10352E005036E4FFFE7D347C42900050E0F8A3E07C
:10353E00F9A3E0FAA3E0FB123B38401CE4FFFE7D4A
:10354E00DC7C42900050E0F8A3E0F9A3E0FAA3E09F
:10355E00FB123B38604A4048900034E0D394185038
:10356E00030236A4E4FFFE7D827C42900050E0F818
:10357E00A3E0F9A3E0FAA3E0FB123B3850030236B6
:10358E00A4E4FFFE7DF07C42900050E0F8A3E0F949
:10359E00A3E0FAA3E0FB123B38600540030236A419
:1035AE00E4FFFE7D407C40900065E0F8A3E0F9A3C7
:1035BE00E0FAA3E0FB123B38601E401CE584600479
:1035CE007F0180027F008F847D01E4FF1258397BDA
:1035DE00FF7A3F79ED0236B1E4FFFEFD7C409000AC
:1035EE0065E0F8A3E0F9A3E0FAA3E0FB123B384054
:1035FE00107D01E4FF1258397BFF7A3F79F80236CD
:10360E00B1E4FFFE7D807C3F900065E0F8A3E0F919
:10361E00A3E0FAA3E0FB123B38400F7D01E4FF125A
:10362E0058397BFF7A4079088079E4FFFEFD7CC033
:10363E00900065E0F8A3E0F9A3E0FAA3E0FB123BEB
:10364E0038400F7D01E4FF1258397BFF7A4079290B
:10365E008051E4FFFE7D407CC0900065E0F8A3E061
:10366E00F9A3E0FAA3E0FB123B38400F7D01E4FF23
:10367E001258397BFF7A40793C8028E58460047FBC
:10368E000180027F008F847D01E4FF1258397BFF99
:10369E007A407948800D7D01E4FF1258397BFF7A1C
:1036AE0040795D1257A6125691BF0CFA43841090C2
:1036BE000034E0C3943C40030237C3E4FFFE7D4078
:1036CE007C40900069E0F8A3E0F9A3E0FAA3E0FBE8
:1036DE00123B38601E401CE58460047F0180027F2F
:1036EE00008F847D01E4FF1258397BFF7A40796E9A
:1036FE0002388DE4FFFEFD7C40900069E0F8A3E007
:10370E00F9A3E0FAA3E0FB123B3840107D01E4FF81
:10371E001258397BFF7A40797902388DE4FFFE7DAD
:10372E00807C3F900069E0F8A3E0F9A3E0FAA3E003
:10373E00FB123B3840107D01E4FF1258397BFF7AB3
:10374E0040798902388DE4FFFEFD7CC0900069E06F
:10375E00F8A3E0F9A3E0FAA3E0FB123B3840107D9A
:10376E0001E4FF1258397BFF7A4079AA02388DE4C2
:10377E00FFFE7D407CC0900069E0F8A3E0F9A3E075
:10378E00FAA3E0FB123B3840107D01E4FF125839DA
:10379E007BFF7A4079BD02388DE58460047F01801D
:1037AE00027F008F847D01E4FF1258397BFF7A403F
:1037BE0079C902388DE4FFFEFD7C40900069E0F887
:1037CE00A3E0F9A3E0FAA3E0FB123B38601E401C15
:1037DE00E58460047F0180027F008F847D01E4FF19
:1037EE001258397BFF7A4079DE02388DE4FFFE7D78
:1037FE00807C3F900069E0F8A3E0F9A3E0FAA3E033
:10380E00FB123B38400F7D01E4FF1258397BFF7AE3
:10381E00407979806AE4FFFEFD7CC0900069E0F893
:10382E00A3E0F9A3E0FAA3E0FB123B38400F7D01C1
:10383E00E4FF1258397BFF7A4079AA8042E4FFFEFA
:10384E007D407CC0900069E0F8A3E0F9A3E0FAA304
:10385E00E0FB123B38400F7D01E4FF1258397BFF2D
:10386E007A4079EB8019E58460047F0180027F0045
:10387E008F847D01E4FF1258397BFF7A4079F9126B
:0B388E0057A6125691BF0CFA4384109D
:01389900220C
:02464B008F2DB1
:10464D007D01E4FF1258397BFF7A41790D7D01120E
:10465D0059377DC0E4FF125839125691744A252DF1
:10466D00F582E43400F583EFF0744A252DF582E4EC
:10467D003400F583E0FF64016003EF70DC7D01E43D
:10468D00FF1258397BFF7A41791E7D011259377D12
:10469D00C0E4FF125839125245123BEF7443252DD9
:1046AD00F582E43400F583EFF07D01E4FF12583913
:1046BD007BFF7A41792E7D011259377DC0E4FF12BF
:1046CD005839125245123BEF7438252DF582E434DA
:1046DD0000F583EFF07443252DF582E43400F58366
:1046ED00E075F00CA4FF7438252DF582E43400F547
:1046FD0083E02FF07438252DF582E43400F583E046
:10470D00FFD39454400302468AEFD39403503D7D6A
:10471D0001E4FF1258397BFF7A4179347D0112593A
:10472D00377DC0E4FF125839125245123BEF743DEC
:10473D00252DF582E43400F583EFF0743D252DF53C
:10474D0082E43400F583E0D3940D50C37D01E4FF82
:10475D001258397BFF7A4179397D011259377DC065
:10476D00E4FF125839125245E52D25E025E02407C6
:10477D00F582E43400F583123E8E7D01E4FF12587C
:10478D00397BFF7A4179457D011259377DC0E4FFB0
:10479D00125839125245E52D25E025E02420F582E9
:1047AD00E43400F583123E8E744A252DF582E434EF
:1047BD0000F583E0900049F07438252DF582E4343E
:1047CD0000F583E0900034F0743D252DF582E4343E
:1047DD0000F583E0900035F0E52D25E025E0240778
:1047ED00F582E43400F583E0FCA3E0FDA3E0FEA335
:1047FD00E0FF900050123E8EE52D25E025E02420AF
:10480D00F582E43400F583E0FCA3E0FDA3E0FEA314
:08481D00E0FF900003023E8E53
:104825008F2D7D01E4FF1258397BFF7A4179517D47
:1048350001125937744A252DF582E43400F583E0D9
:104845007BFF60067A41795780047A41795C12577B
:10485500A67438252DF582E43400F583E0D394035E
:104865007BFF40147A4179607D02125937743825EF
:104875002DF582E4340080127A4179687D0212595F
:1048850037743D252DF582E43400F583E0FF125899
:10489500577B017A00791B1257A6125691BF0CFA65
:1048A5007D01E4FF1258397BFF7A41796F7D011252
:1048B5005937E52D25E025E02407F582E43400F598
:1048C50083E0FCA3E0FDA3E0FEA3E0FF1254CA7B56
:1048D500007A00790A1257A67BFF7A417978125738
:1048E500A67BFF7A41797B7D02125937E52D25E0BC
:1048F50025E02420F582E43400F583E0FCA3E0FD07
:10490500A3E0FEA3E0FF1254CA7B007A00790A12E5
:1049150057A67BFF7A4179841257A6125691BF0C90
:10492500FA744A252DF582E43400F583E0900049B8
:10493500F07438252DF582E43400F583E0900034D9
:10494500F0743D252DF582E43400F583E0900035C3
:10495500F0E52D25E025E02407F582E43400F58314
:10496500E0FCA3E0FDA3E0FEA3E0FF900050123EB3
:104975008EE52D25E025E02420F582E43400F5833D
:10498500E0FCA3E0FDA3E0FEA3E0FF900003023EF0
:014995008E93
:1054BA00E4FFFE7DF0AB38AA37A936A8351238A129
:1054CA008F3D8E3C8D3B8C3AE4FBFA79C8784212C8
:1054DA003A9B123BEFEF75F00A84E5F04430F50A87
:1054EA00E4FBFA79207841AF3DAE3CAD3BAC3A12D1
:1054FA003A9B123BEFEF75F00A84E5F04430F50B66
:10550A00AF3DAE3CAD3BAC3A123BEFEF75F00A84CF
:10551A00E5F04430F50C750D2EE4FFFE7D207C414C
:10552A00AB3DAA3CA93BA83A123992123BEF7C0048
:0B553A007D0A123E0BED4430F50E22FE
:10585700AD07ED75F0648475F00A84E5F044309087
:10586700001BF0ED75F00A8475F00A84E5F044300A
:0E587700A3F0ED75F00A84E5F04430A3F022B2
:105545005391FB7D01E4FF1258397BFF7A4179873E
:105555007D011259377DC0E4FF12583912524512A8
:105565003BEF900042EFF0C3941850D77D01E4FF64
:105575001258397BFF7A41798C7D011259377DC0EC
:10558500E4FF125839125245123BEF90001FEFF01D
:10559500C3943C50D77D01E4FF1258397BFF7A4113
:1055A50079937D011259377DC0E4FF1258391252A3
:1055B50045123BEF900002EFF0C3943C50D7439166
:0155C50004E1
:0155C60022C2
:1052EE007D01E4FF1258397BFF7A41799A7D0112D4
:1052FE0059377DC0E4FF125839125691EF24FF92B0
:10530E00002000032000F230007B7D01E4FF1258E4
:10531E00397BFF7A4179877D011259377DC0E4FFD1
:10532E00125839125245123BEF90004FEFF0C394D2
:10533E001850D77D01E4FF1258397BFF7A41798CE2
:10534E007D011259377DC0E4FF12583912524512B1
:10535E003BEF900048EFF0C3943C50D77D01E4FF43
:10536E001258397BFF7A4179937D011259377DC0EE
:10537E00E4FF125839125245123BEF900036EFF00F
:05538E00C3943C50D760
:0153930022F7
:025885008F4D45
:10588700E4F54EC2B7F54EE54D24FF92B6E54DC39C
:1058970013F54D12002ED2B712002EC2B712002EEA
:0B58A700054EE54EC3940840DEC2B67B
:0158B20022D3
:1056910043840FE4FF12588512002E125A2D200266
:1056A100FD7FF8125885E4F54CE54CC3940550E0B4
:1056B100E54C7003FF80027F011259D812002EC2FF
:1056C100051259F2E584540FF54B640F601EAF8447
:1056D100EF540F640F60071258E1AF8480F2AF4BB3
:1056E10012597FE54C25E025E02FFF22054C80B9BA
:1059D8008F4DC2B712002EE54D24FF92B612002E4D
:0A59E800D2B712002EC2B702002E43
:10597F00EF24F9601424FC600D24FE600614700CF3
:0F598F007F00227F01227F02227F03227F1422CA
:10524500C204E4F54AF54A125691EF24F6500B6074
:105255002224FE60371460408072EF4430FF743AB8
:10526500254AF8A607743A254AF8E6FD7F01125843
:10527500398059200412743A254AF8762E7D2E7FFE
:1052850001125839D2048044154A8040E54A600429
:10529500243A8048154A8034E54A6030154A743A04
:1052A500254AF8E6B42E02C204E54A44C0FDE4FFEF
:1052B50012583912002E7D207F0112583912002E06
:1052C500E54A44C0FDE4FF125839154A054AE54A46
:1052D500C39410500302524C743A254AF8E4F67B05
:0852E500007A00793A125080B2
:0152ED00229E
:065080008B4B8A4C894DA8
:10508600E4F54EF553F552F551F5507557CD755675
:10509600CC7555CC75543D1259BC8F4FAB4BAA4CB1
:1050A600A94D854E82758300123DDEFC642E604656
:1050B600E54EC3954F503FE4123BBBC004C005C04C
:1050C60006C007E4FFFE7D207C41AB53AA52A951DE
:1050D600A850123992D003D002D001D0001238A1C4
:1050E600E4FBFA794078C21238A18F538E528D5163
:1050F6008C50054E80A6054EE54EC3954F5066ABC7
:1051060053AA52A951A850C000C001C002C003ABA7
:105116004BAA4CA94D854E82758300123DDE24D0E4
:10512600FDE434FFFCE4123BB6AB57AA56A955A8DA
:1051360054123992D003D002D001D0001238A18F78
:10514600538E528D518C50054EAF57AE56AD55AC61
:1051560054E4FBFA79207841123A9B8F578E568D8C
:0D516600558C548093AF53AE52AD51AC50F8
:015173002219
:0E5A2D00758AB0758C3CD28CD2022002FD220C
:10582700AB3EAA3FA940854282758300123DDEFD4B
:025837007F01EF
:10583900EF6006D2B0C2B18004C2B0C2B18DA07F00
:0E5849000212590FD2B27F0212590FC2B222C0
:10599E00C2B27D01E4FF1258397D06E4FF12583978
:0E59AE007D0CE4FF1258397D38E4FF025839B1
:105937008B3A8A3B893C8D3DE53DB402047DC080AE
:1059470007E53DB401077D80E4FF125839AB3AAA59
:065957003BA93C0257A62B
:0657A6008B3E8A3F8940A2
:1057AC001259BC8F41E541D394105011E4F542E5F8
:1057BC0042C39541502E125827054280F2E4F5421F
:1057CC001258270542E542C3941040F47DC0E4FF13
:1057DC00125839754210E542C395415007125827AB
:0457EC00054280F200
:0157F0002296
:0659BC008B588A59895A3C
:1059C200E4FFAB58AA59A95A8F82758300123DDEB3
:0559D20060030F80EDF1
:0159D70022AD
:100076003F8000004247896C3D1B71763F8000003F
:10008600424C75F73D187E7C3F8000004251626805
:100096003D1595FF3F80000042558FDF3D13D31C71
:1000A6003F80000042598D6A3D123A2A3F80000087
:1000B600425D597F3D10C0AD3F8000004260F15B5C
:1000C6003D0F66A53F800000426457243D0E2196F1
:1000D6003F80000042678E3C3D0CFBFC3F800000E9
:1000E600426A9D493D0BEB5B3F800000426D8C7E72
:1000F6003D0AEFB33F80000042705B8C3D09FE87EE
:100106003F80000042730AC13D0922533F80000030
:1001160042759AEE3D085B183F8000004244973FC7
:100126003D1B3D083F800000424951B73D1945B788
:100136003F800000424E0C4A3D174E663F8000004D
:100146004251E0C53D1648413F8000004255860BAE
:100156003D1561913F8000004258FB4A3D148FDAFD
:100166003F800000425C41BE3D13D31C3F8000002F
:10017600425F5CC63D132B563F80000042624E8AAA
:100186003D128E0D3F80000042651ABA3D11FB40BC
:100196003F8000004267C63F3D117D6B3F800000F7
:1001A600426A538F3D10FF973F800000426CC4D0D7
:1001B6003D1096BC3F800000426F1BF53D102FF9A5
:1001C6003F800000427F8B443D05681F3F80000052
:1001D6004283CE223D033C603F80000042873F4879
:1001E6003D01A36E3F800000428A54393D0092CD06
:1001F6003F800000428D32E53CFFEB073F80000068
:10020600428FEFF93CFF583A3F80000042928FF947
:100216003CFF6D333F800000429513DE3D00000039
:100226003F80000042977F633D007DD43F80000001
:100236004299D6533D0130163F800000429C197208
:100246003D0201CD3F800000429E4AA63D02F2FAE1
:100256003F80000042A06C303D03F91E3F80000045
:1002660042A27F563D051EB83F80000042A484741A
:100276003D064ECF3F80000042A67BCD3D0793DE74
:100286003F80000042A866323D08E3693F800000D7
:1002960042AA45053D0A47ED3F80000042AC186C76
:1002A6003D0BAC713F80000042ADE1CB3D0D1B71B3
:1002B6003F80000042AFA1D83D0E7FF63F80000090
:1002C60042AFF1AA3D1114903F80000042B19CEE6E
:1002D6003D1279143F80000042B33D493D13DD983D
:1002E6003F80000042B4D2F23D152D233F8000002E
:1002F60042B65D983D167CAF3F80000042B7DD8B6D
:100306003D17B7413F80000042B953823D18E75878
:100316003F80000042BAC0273D1A0CF23F80000021
:1003260042BC24673D1B1D933F80000042BD81A354
:100336003D1C23B83F80000042BED8E23D1D1F6031
:100346003F80000042C02AC13D1E06103F800000CB
:1003560042C177A83D1EE2433F80000042C2BFF380
:100366003D1FBE773F80000042C403BD3D2085B2DD
:100376003F80000042C543123D2142703F8000008D
:1003860042C67DE73D21F4B23F80000042C7B3F884
:100396003D22A6F43F80000042C8E5A23D23443D2D
:1003A6003F80000042CA13263D23EC033F80000035
:1003B60042CB3CB93D247ED03F80000042CC62F85F
:1003C6003D251C193F80000042CD86663D25AEE6E0
:1003D6003F80000042CEA7943D2641B33F800000F7
:1003E60042CFC6F73D26D4803F80000042D0E505C7
:1003F6003D275CD13F80000042D202193D27EF9E87
:100406003F80000042D31E843D2877EE3F800000E7
:1004160042D43A443D29003F3F80000042D555670B
:100426003D2988903F80000042D670073D2A10E0A3
:100436003F80000042D78A163D2A99313F8000004E
:1004460042D8A3BD3D2B17053F80000042D9BCE032
:100456003D2B9F563F80000042DAD5813D2C1D2A58
:100466003F80000042DBED773D2C9AFE3F80000086
:1004760042DC87873D2A8EB43F80000042DD99E842
:100486003D2AE2973F80000042DEAAE83D2B367AFD
:100496003F80000042DFBA2A3D2B7FE13F8000000B
:1004A60042E0C76D3D2BD3C33F80000042E1D26FCF
:1004B6003D2C27A63F80000042E2DB233D2C7B89B2
:1004C6003F80000042E3E1CB3D2CC4F03F800000BA
:1004D60042E4E6663D2D18D23F80000042E5E8CEB4
:1004E6003D2D6CB53F80000042E6E8E93D2DB61C87
:1004F6003F80000042E7E6DC3D2E09FF3F8000001A
:1005060042E8E2EB3D2E5DE13F80000042E9DD710D
:100516003D2EA7483F80000042EAD6D63D2EFB2B53
:100526003F80000042EBCF283D2F4F0E3F8000005A
:1005360042ECC6A83D2F98743F80000042EDBD7185
:100546003D2FEC573F80000042EEB39C3D30403AD1
:100556003F80000042EFA91D3D30941D3F80000002
:1005660042F09DF43D30DD833F80000042F192135E
:100576003D3131663F80000042F285533D31854969
:100586003F80000042F377B53D31D92B3F80000014
:1005960042785C0F3D0EC95C3F80000042800F69C7
:1005A6003D0DD8303F800000428376533D0D3AE73B
:1005B6003F800000428693193D0CF1803F80000089
:1005C60042897FE63D0CE7043F800000428C497972
:1005D6003D0D10F53F800000428EF6AE3D0D64D80D
:1005E6003F80000042918AC13D0DE2AC3F80000091
:1005F600429407AE3D0E7FF63F80000042966F693B
:100606003D0F32383F8000004298C36E3D0FEEF634
:100616003F800000429B05123D10C0AD3F800000A8
:10062600429D36043D119CE03F800000429F578D5D
:100636003D1279143F80000042A16A723D135FC4E7
:100646003F80000042A36FB83D1446743F8000000F
:1006560042A5683E3D1537A03F80000042A754AF33
:100666003D1628CC3F80000042A9353F3D170F7C40
:100676003F80000042AB0A583D1800A83F800000AA
:1006860042ACD4A23D18F1D43F80000042AD2E49C1
:100696003D1B13163F80000042AEE4743D1BF9C6B5
:1006A6003F80000042B090E53D1CE0763F800000B0
:1006B60042B233683D1DBCA93F80000042B3CC570F
:1006C6003D1E98DD3F80000042B55C023D1F75105F
:1006D6003F80000042B6E2D13D2046C73F80000081
:1006E60042B861963D21187E3F80000042B9D90983
:1006F6003D21DFB93F80000042BB49EF3D22A6F411
:100706003F80000042BCB4E43D2363B23F8000005A
:1007160042BE1A5E3D2415F43F80000042BF7AD4E3
:100726003D24D2B33F80000042C0D6603D2584F50B
:100736003F80000042C22D503D262CBA3F8000006B
:1007460042C37FA43D26D4803F80000042C4CD91A1
:100756003D277C463F80000042C616F03D28240B0C
:100766003F80000042C75BE73D28C1553F8000003F
:1007760042C89C923D295E9E3F80000042C9D8FC3B
:100786003D29FBE73F80000042CB11413D2A8EB454
:100796003F80000042CC45A23D2B2BFE3F8000004F
:1007A60042CD76603D2BBECB3F80000042CEA3B04B
:1007B6003D2C471B3F80000042CFCDE03D2CD9E8C1
:1007C6003F80000042D0F50B3D2D62393F8000008E
:1007D60042D2194B3D2DEA893F80000042D33AC7E9
:1007E6003D2E72DA3F80000042D4597F3D2EFB2B0E
:1007F6003F80000042D575813D2F837B3F800000FE
:1008060042D68EBF3D300BCC3F80000042D7A53983
:100816003D3089A03F80000042D8B8FC3D310774C6
:100826003F80000042D9CA233D3185493F80000000
:1008360042DAD8BB3D320D993F80000042DB3405D9
:100846003D32617C3F80000042DC40693D32BFDBC7
:100856003F80000042DD4A4B3D331E3A3F80000098
:1008660042DE51B73D337C9A3F80000042DF56D6C8
:100876003D33D07D3F80000042E059C13D342EDC3F
:100886003F80000042E15A783D3482BF3F8000003D
:1008960042E259173D34D6A13F80000042E3559B02
:1008A6003D352A843F80000042E450213D357E6775
:1008B6003F80000042E548C13D35D24A3F800000F6
:1008C60042E63FB13D36262D3F80000042E73532F5
:1008D6003D366F933F80000042E829933D36B8FAD3
:1008E6003F80000042E91D153D370CDD3F800000CA
:1008F60042EA0FEC3D374BC73F80000042EB024116
:100906003D37952D3F80000042EBF42C3D37DE94B9
:100916003F80000042ECE5D63D381D7E3F8000005A
:1009260042EDD7733D3866E43F80000042EEC903CE
:100936003D38A5CE3F80000042EFBAC73D38E4B847
:100946003F80000042F0ACC03D3923A33F80000049
:1009560042F19EFA3D3958103EB288CE40562B6B76
:100966003E1586443E8E2196405F39C13E144E5157
:100976003E8425AF40702F833E10D0683E7A0F919B
:100986004081EDFA3E0D62393E6EB1C4408BBF48E0
:100996003E0A35933E65119D409516873E07525493
:1009A6003E5CAC08409DC5053E04B5DD3E55182BA2
:1009B60040A5D07D3E02584F3E4E3BCD40AD46DC75
:1009C6003E00346E3E47E28240B438863DFC84B633
:1009D6003E41F21340BAB50B3DF8F9B13E3C6A7F91
:1009E60040C0C63F3DF5C7CE3E37319040C675F78D
:1009F6003DF2E48F3E322D0E40CBCED93DF0457808
:100A06003EC30553404EDC5D3E111C6D3E88C1550C
:100A16004055AEE63E1581063E6BEDFA40646F69C1
:100A26003E12D4D43E4F41F2407573EB3E0FF9723D
:100A36003E3731904083288D3E0D5CFB3E21FF2ED4
:100A4600408B1F8A3E0B17053E0ED917409289A090
:100A56003E0922533DFAACDA409970A43E07746908
:100A66003DDA1CAC409FDE6A3E0602C93DBC01A3CE
:100A760040A5E4F73E04C5973D9F8A0940AB93DE47
:100A86003E03B2573D84B5DD40B0F1AA3E02C3CA6B
:100A96003D570A3D40B6068E3E01F4B23D26B50BE3
:100AA60040BADB8C3E013FD13E1F06F740E012D72D
:100AB6003DE7C06E3E0ED91740F056043DE2EB1CF2
:100AC6003E00B78040FDE3543DE06B7B3DE83E428F
:100AD6004104C0833DDF45E13DD119CE4109D773BD
:100AE6003DDEDD053DBBCD36410E6C223DDED7C772
:100AF6003DA7EF9E4112A36E3DDF0C353D95810665
:100B06004116985F3DDF5AD93D83E426411A5DCCF4
:100B16003DDFBE773D669AD4411DFF973DE03C4BD5
:100B26003D4779A7412186593DE0C9DA3D292A305A
:100B36004124F9093DE16C613D0C7E2841285D6444
:100B46003DE21EA33CE147AE412BB5DD3DE2E5DECD
:100B56003CACD9E8412F04193DE3B7953C727BB311
:100B6600413249BA3DE4A3833C0E8A7241358A0973
:100B76003DE599ED3B3E0DED4138C7113DE6A0122E
:100B8600BB378034413C01A33DE7B5F2BC07FCB955
:100B9600413F38EF3DE8D64DBC6075F741426C8B5E
:100BA6003DEA0126BC9AD42C41459A6B3DEB367A38
:100BB600BCC49BA64148BEE03DEC6BCFBCECBFB1CC
:100BC600414BD7733DEDA661BD0A0903414EE28252
:100BD6003DEEE0F4BD1DB22D4151DED33DF0164889
:100BE600BD3089A04154CCCD3DF1465FBD42F838B9
:100BF6004157AD433DF27675BD54FDF4415A81D857
:100C06003DF3A14DBD6703B0415D4B5E3DF4CC2580
:100C1600BD7837B541600CB33DF5EC81BD84B5DDDB
:100C26004162C7113DF7079EBD8D1B7141657C85ED
:100C36003DF822BCBD954C9841682E493DF9335D7F
:100C4600BD9D7DBF416ADD983DFA43FEBDA57A781C
:100C5600416D8BAC3DFB4F61BDAD42C4417039580F
:100C66003DFC5AC4BDB4D6A14172E69B3DFD662744
:100C7600BDBC6A7F417593DE3DFE76C9BDC3FE5D90
:100C8600417840B83DFF8CA8BDCB5DCC417AECC025
:100C96003E005144BDD288CE417D985F3E00E17250
:100CA600BDD9B3D0418021623E0176DEBDE0AA65A2
:100CB6004181762B3E020C4ABDE7A0F94182CA8CDF
:100CC6003E02A6F4BDEE978D41841EB83E03443D18
:100CD600BDF559B4418572E53E03E426BDFBE76DDB
:100CE6004186C6DC3E04894CBE013A9341881B0905
:100CF6003E052BD4BE04816F41896F003E05D39912
:100D0600BE07AE14418AC2F83E067B5FBE0ADABA57
:100D1600418C16BC3E072325BE0E075F418D6A1621
:100D26003E07CAEABE1119CE418EBCD33E0872B048
:100D3600BE142C3D41900EF33E091A76BE173EAB0B
:100D4600419160AA3E09C23BBE1A36E34192B15BAD
:100D56003E0A6A01BE4F766041940BAC3E04FF43E7
:100D6600BE5A1CAC4195710D3E05681FBE64C2F8A3
:100D76004196D9B43E05CE5BBE6F6944419845A203
:100D86003E0631F9BE7A29C74199B4A23E0692F7CA
:100D9600BE827525419B26E93E06F156BE87D5677C
:100DA600419C9CAC3E074D16BE8D35A8419E15EA6A
:100DB6003E07A398BE92A305419F930C3E07FA1ADD
:100DC600BE98034741A113403E084DFDBE9D70A449
:100DD60041A296873E089F41BEA2D0E541A41C0FC2
:100DE6003E08EDE5BEA8312741A5A4403E093C8A50
:100DF600BEAD916841A72EE63E098B2FBEB2E48FA9
:100E060041A8BC023E09D9D3BEB837B541AA4BC7E3
:100E16003E0A2B17BEBD7DBF41ABDDCC3E0A79BC79
:100E2600BEC2C3CA41AD72B03E0ACAFFBEC7FCB954
:100E360041AF0A093E0B1EE2BECD288D41B0A3D7B5
:100E46003E0B72C5BED2474541B2401A3E0BCBE6B9
:100E5600BED765FE41B3DE9E3E0C2507BEDC6A7F2B
:100E660041B57F633E0C8366BEE161E541B721CBA8
:100E76003E0CE465BBA3D70A40CD8EF33DFDFE33A1
:100E8600BD3020C540DCC0833DFB5F1CBD9AD42C21
:100E960040E981063DF9F01CBDD4C98640F48CE7D3
:100EA6003DF967CBBE03E42640FE5BC03DF977857E
:100EB600BE1A511A41039B3D3DF9D5E5BE2E147B62
:100EC6004107AE143DFA53B9BE3FB15B410B81D821
:100ED6003DFAD18DBE4F41F2410F2B6B3DFB3FA733
:100EE600BE5CFAAD4112B7E93DFB8E4CBE69446764
:100EF600411631273DFBC7F7BE741F2141199CE0FF
:100F06003DFBE22EBE7DBF48411CFF973DFBF72708
:100F1600BE832CA541205C923DFC06E2BE8703B051
:100F26004123B4393DFC169CBE8A64C34127075F42
:100F36003DFC3611BE8D6A16412A57A83DFC60035A
:100F4600BE9020C5412DA7873DFC9EEDBE9288CE62
:100F56004130F9093DFCED91BE94A23441344D0176
:100F66003DFD512FBE9694464137A3D73DFDBF4860
:100F7600BE9851EC413AFB7F3DFE3D1DBE99DB23F9
:100F8600413E50B13DFECAACBE9B3D0841419FBEAD
:100F96003DFF6D33BE9C84B64144E4F73E000FBB73
:100FA600BE9DB22D41481DE73E0075F7BE9EC56D3C
:100FB600414B49BA3E00E411BE9FBE77414E68DC04
:100FC6003E015CA7BEA0AA6541517CEE3E01DFB999
:100FD600BEA1893741548A093E026D48BEA25AEE27
:100FE600415791D13E0302B4BEA31F8A415A96BC13
:100FF6003E03A29CBEA3E426415D9AD43E044A6207
:10100600BEA4A8C141609DB23E04FF43BEA5604296
:1010160041639FBE3E05B963BEA60AA641669FBE52
:101026003E06809DBEA6C22741699DB23E074D166B
:10103600BEA76C8B416C98C83E081ECDBEA816F0A4
:10104600416F902E3E08F862BEA8C1554172844D8C
:101056003E09D495BEA96BBA417574BC3E0AB36805
:10106600BEAA161E4178624E3E0B923ABEAAC083B5
:10107600417B4D6A3E0C73ACBEAB6AE8417E3611CD
:101086003E0D4FDFBEAC154D41808EBF3E0E2C137C
:10109600BEACBFB1418202413E0F0846BEAD6A16E4
:1010A600418375253E0FE1DABEAE147B4184E80A22
:1010B6003E10B631BEAECBFB41865A863E118A87BC
:1010C600BEAF76604187CC643E125C3EBEB020C5A2
:1010D60041893DA53E1328B7BEB0CB29418AAD77DD
:1010E6003E13F291BEB1758E418C1BDA3E14BC6A7A
:1010F600BEB21FF3418D88663E158106BEB2CA5840
:10110600418EF2E53E1645A2BEB374BC41905B2308
:101116003E1704FFBEB41F214191C1203E17C45D96
:10112600BEEFAACE4192102E3E12617CBEF134056E
:10113600419376943E12F1AABEF2CA584194DBC09E
:101146003E137F39BEF460AA41963FB13E140F6745
:10115600BEF5E9E24197A2D13E149F95BEF78034D1
:10116600419905533E152FC2BEF9096C419A67385D
:101176003E15BFF0BEFA92A3419BC8B43E16501E60
:10118600BEFC1BDA419D29FC3E16E2EBBEFDA51214
:10119600419E8B443E177319BEFF2E49419FED2990
:1011A6003E180347BF00553241A14FAB3E18937519
:1011B600BF0119CE41A2B39C3E1923A3BF01D7DCC0
:1011C60041A419653E19B3D0BF028F5C41A5820CBC
:1011D6003E1A43FEBF034D6A41A6EDC63E1AD42C05
:1011E600BF0404EA41A85D983E1B645ABF04BC6A6A
:1011F60041A9D1B73E1BF488BF0573EB41AB4A58F2
:101206003E1C8217BF0624DD41ACC8803E1D124538
:10121600BF06DC5D41AE4C303E1D9FD3BF0786C284
:1012260041AFD6043E1E3001BF0837B541B1669BBB
:101236003E1EBD90BF08E21941B2FDF43E1F4B1F92
:10124600BEB44674401C39583DBC0C20BEB446742E
:1012560040218FC53DBB7415BEB446744026E48F4D
:101266003DBADC0ABEB44674402C3E423DBA3EC08E
:10127600BEB446744031A1CB3DB9A6B5BEB44674E2
:10128600403718FC3DB90EAABEB44674403CAC08C3
:101296003DB8769FBEB44674404269AD3DB7D95558
:1012A600BEB4467440485F073DB7414ABEB4467473
:1012B600404E91003DB6A93FBEB446744054FAADC7
:1012C6003DB61134BEB44674405B97243DB57929CA
:1012D600BEB446744062680A3DB4DBE0BEB44674F0
:1012E600406973EB3DB43E96BEB446744070C49CF0
:1012F6003DB3A14DBEB44674407868DC3DB30404EA
:10130600BEB44674408031273DB266BABEB4467458
:10131600408455323DB1C971BEB4467440889E1BA7
:101326003DB12C28BEB44674408D02DE3DB08EDE43
:10133600BEB4467440917E913DAFF6D3BEB44674BA
:1013460040960DED3DAF5EC8BEB44674409AAE7D84
:101356003DAECBFBBEB44674409F58E23DAE392E3F
:10136600BEB4467440A4075F3DADB0DEBEB446745D
:1013760040A8B50B3DAD288DBEB4467440AD604265
:101386003DACA57ABEB4467440B205BC3DAC27A6BA
:10139600BEB4467440B6A3053DABAF10BEB44674AA
:1013A60040BB34053DAB40F6BEB4467440BFB3D037
:1013B6003DAAD81BBEB4467440C41BDA3DAA79BC0C
:1013C600BEB4467440C86C223DAA25D9BEB4467444
:1013D60040CCA71E3DA9D1F6BEB4467440D0CD9FE1
:1013E6003DA98DCEBEB4467440D4E2EB3DA949A5D5
:1013F600BEB4467440D8EA4B3DA90FF9BEB4467454
:1014060040DCE3BD3DA8DB8CBEB4467440E0D0E5CD
:101416003DA8AC5CBEB4467440E4B1C43DA887A9FF
:10142600BEB4467440E887FD3DA86834BEB4467431
:1014360040EC55323DA84DFDBEB4467440F01BDA73
:101446003DA83E42BEB4467440F3DBF53DA833C624
:10145600BEB4467440F795813DA82E88BEB4467446
:1014660040FB48803DA82E88BEB4467440FEF4F189
:101476003DA83904BEB4467441014E3C3DA84381A3
:10148600BEB44674410320C53DA8533BBEB4467462
:101496004104F27C3DA86D72BEB446744106C36138
:1014A6003DA887A9BEB44674410892A33DA8A71ECD
:1014B600BEB44674410A5E353DA8C693BEB44674B2
:1014C600410C26813DA8EB46BEB44674410DEA4B5D
:1014D6003DA90ABBBEB44674410FA92A3DA934AD45
:1014E600BEB446744111624E3DA95960BEB44674FD
:1014F6004113154D3DA97E13BEB446744114C2274F
:101506003DA9A2C6BEB4467441166A7F3DA9C23B38
:10151600BEB4467441180D1B3DA9E1B1BEB4467474
:101526004119AA653DAA0126BEB44674411B40B8BE
:101536003DAA209BBEB44674411CCFAB3DAA359351
:10154600BEB44674411E573F3DAA454EBEB44674CE
:10155600411FD7DC3DAA5508BEB44674412152BD91
:101566003DAA5A47BEB446744122C91D3DAA5A47F0
:10157600BEB4467441243D083DAA4FCABEB4467463
:101586004125B15B3DAA4010BEB44674412728F6FA
:101596003DAA25D9BEB446744128A5E33DAA012635
:1015A600BEB44674412A29C73DA9D734BEB4467491
:1015B600412BB7173DA9A805BEB44674412D504826
:1015C6003DA96E59BEB44674412EF5C33DA92A30D5
:1015D600BEB446744130A9FC3DA8E0CABEB4467408
:1015E60041326CF43DA89225BEB4467441343DD9CF
:1015F6003DA83E42BEB4467441361B713DA7E52167
:10160600BEB44674413802DE3DA78C00BEB44674B3
:101616004139F2E53DA72DA1BEB44674413BE91020
:101626003DA6CF42BEB44674413DE2823DA6762138
:10163600BEB44674413FDD983DA61D00BEB4467457
:101646004141D7DC3DA5CE5BBEB446744143CFAB2A
:101656003DA584F5BEB446744145C3CA3DA540CCFC
:10166600BEB446744147B4393DA50721BEB446749D
:101676004149A0903DA4D2B3BEB44674414B88CE36
:101686003DA4AE00BEB44674414D6D5D3DA4894C8B
:10169600BEB44674414F4F763DA47454BEB44674EE
:1016A60041512FEC3DA45F5BBEB4467441530E56C8
:1016B6003DA45A1DBEB446744154EB853DA45A1D43
:1016C600BEB446744156C84B3DA45F5BBEB4467477
:1016D6004158A57A3DA46F15BEB44674415A83E4B9
:1016E6003DA4894CBEB44674415C64C33DA4A8C104
:1016F600BEB44674415E48E93DA4CD75BEB4467499
:10170600416031273DA4FCA4BEB4467441621EB8B4
:101716003DA53650BEB44674416412063DA56FFC25
:10172600BEB4467441660D1B3DA5B963BEB446748E
:1017360041680F913DA602C9BEB44674416A1B09B1
:101746003DA656ACBEB44674416C2EB23DA6AFCD96
:10175600BEB44674416E4B5E3DA70E2CBEB44674B5
:10176600417070A43DA77708BEB4467441729E844A
:101776003DA7E521BEB446744174D42C3DA85879E2
:10178600BEB44674417712063DA8D10FBEB4467466
:101796004179573F3DA94EE4BEB44674417BA4400F
:1017A6003DA9D1F6BEB44674417DF8A13DAA5508BF
:1017B600BEB4467441802A303DAADD59BEB4467493
:1017C60041815B8C3DAB6AE8BEB446744182902E83
:1017D6003DABF877BEB446744183C84B3DAC8B44F1
:1017E600BEB44674418503B03DAD1E11BEB4467409
:1017F600418642C43DADB0DEBEB4467441878553D2
:101806003DAE48E9BEB446744188CBC73DAEE0F470
:10181600BEB44674418A15EA3DAF78FFBEB446743D
:10182600418B63BD3DB01B86BEB44674418CB53F4B
:101836003DB0B8D0BEB44674418E0ADB3DB15B57AD
:10184600BEB44674418F64C33DB1FDDFBEB4467479
:101856004190C3613DB2A5A4BEB44674419226B57B
:101866003DB34D6ABEC43FE6401D7C1C3DB8E9F75A
:10187600BEC43FE64022ECC03DB8FEEFBEC43FE624
:1018860040285BC03DB913E8BEC43FE6402DCAC13F
:101896003DB923A3BEC43FE640333EAB3DB9389BBA
:1018A600BEC43FE64038BFB13DB94D94BEC43FE625
:1018B600403E57A83DB9628DBEC43FE6404412067D
:1018C6003DB97785BEC43FE64049FBE73DB98C7E0E
:1018D600BEC43FE6405020C53DB9A177BEC43FE631
:1018E600405683E43DB9B670BEC43FE6405D2A303B
:1018F6003DB9CB68BEC43FE6406412063DB9E0611F
:10190600BEC43FE6406B39C13DB9F55ABEC43FE699
:101916004072A1623DBA0F91BEC43FE6407A45A22D
:101926003DBA2489BEC43FE640810FF93DBA3982EB
:10193600BEC43FE6408517593DBA53B9BEC43FE61B
:10194600408933333DBA68B2BEC43FE6408D5F700E
:101956003DBA7DAABEC43FE6409197F63DBA92A332
:10196600BEC43FE64095D8AE3DBAA79CBEC43FE68E
:10197600409A1E4F3DBABC94BEC43FE6409E666682
:101986003DBACC4FBEC43FE640A2ADAC3DBAE1483D
:10199600BEC43FE640A6F41F3DBAF102BEC43FE610
:1019A60040AB38EF3DBAFB7FBEC43FE640AF78039D
:1019B6003DBB05FBBEC43FE640B3AEE63DBB10777C
:1019C600BEC43FE640B7DA513DBB15B5BEC43FE6DF
:1019D60040BBF9723DBB1AF4BEC43FE640C00B786B
:1019E6003DBB2032BEC43FE640C410623DBB203240
:1019F600BEC43FE640C809033DBB1AF4BEC43FE679
:101A060040CBF62B3DBB15B5BEC43FE640CFD567F0
:101A16003DBB0B39BEC43FE640D3A92A3DBB00BD42
:101A2600BEC43FE640D773193DBAF640BEC43FE692
:101A360040DB34053DBAE686BEC43FE640DEEB1C1D
:101A46003DBAD6CBBEC43FE640E299313DBAC1D3DA
:101A5600BEC43FE640E63D713DBAACDABEC43FE6E1
:101A660040E9D7DC3DBA92A3BEC43FE640ED67A18C
:101A76003DBA7DAABEC43FE640F0EBEE3DBA6373C5
:101A8600BEC43FE640F466663DBA493DBEC43FE685
:101A960040F7D5673DBA29C7BEC43FE640FB3A9337
:101AA6003DBA0F91BEC43FE640FE96BC3DB9F01C60
:101AB600BEC43FE64100F55A3DB9D5E5BEC43FE692
:101AC60041029BA63DB9B670BEC43FE641043DD96E
:101AD6003DB996FBBEC43FE64105DD983DB9778525
:101AE600BEC43FE641077B4A3DB95810BEC43FE637
:101AF6004109161E3DB9335DBEC43FE6410AADAC91
:101B06003DB913E8BEC43FE6410C41F23DB8F4735B
:101B1600BEC43FE6410DD2203DB8D4FEBEC43FE66A
:101B2600410F5C923DB8B04BBEC43FE64110E2198E
:101B36003DB890D6BEC43FE64112624E3DB86C2217
:101B4600BEC43FE64113DE6A3DB84CADBEC43FE6B7
:101B5600411556D63DB827FABEC43FE64116CD9F7D
:101B66003DB80347BEC43FE6411843FE3DB7E3D246
:101B7600BEC43FE64119BCD33DB7BF1FBEC43FE656
:101B8600411B39583DB79A6BBEC43FE6411CBB307A
:101B96003DB77AF6BEC43FE6411E43963DB756436F
:101BA600BEC43FE6411FD3C33DB736CEBEC43FE6F3
:101BB60041216CF43DB71759BEC43FE6412310CB13
:101BC6003DB6F7E4BEC43FE64124BE773DB6D86FC6
:101BD600BEC43FE6412677323DB6BE38BEC43FE6B8
:101BE600412839583DB6A401BEC43FE6412A0553F3
:101BF6003DB68F08BEC43FE6412BDB233DB67A10C7
:101C0600BEC43FE6412DB98C3DB66517BEC43FE65E
:101C1600412FA0903DB6555CBEC43FE641318EF3E0
:101C26003DB645A2BEC43FE64133844D3DB63B2595
:101C3600BEC43FE641357EFA3DB635E7BEC43FE653
:101C460041377E913DB62B6BBEC43FE641398106D6
:101C56003DB62B6BBEC43FE6413B85883DB62B6B3C
:101C6600BEC43FE6413D89A03DB62B6BBEC43FE6F0
:101C7600413F8D503DB630A9BEC43FE641418FC5B8
:101C86003DB63B25BEC43FE6414391003DB645A265
:101C9600BEC43FE64145902E3DB6555CBEC43FE608
:101CA60041478E8A3DB66517BEC43FE641498B441F
:101CB6003DB674D1BEC43FE6414B872B3DB689CABB
:101CC600BEC43FE6414D82413DB6A401BEC43FE6D7
:101CD600414F7D563DB6BE38BEC43FE6415178D52C
:101CE6003DB6D86FBEC43FE6415373EB3DB6F7E44D
:101CF600BEC43FE64155703B3DB71C97BEC43FE6A8
:101D060041576DC63DB7414ABEC43FE641596D5D78
:101D16003DB765FEBEC43FE6415B6F003DB78FEF42
:101D2600BEC43FE6415D73EB3DB7BF1FBEC43FE691
:101D3600415F7B4A3DB7EE4EBEC43FE641618659E0
:101D46003DB81D7EBEC43FE6416395183DB851ECD3
:101D5600BEC43FE64165A8C13DB88659BEC43FE64C
:101D66004167C1BE3DB8C005BEC43FE64169E0DF7C
:101D76003DB8FEEFBEC43FE6416C07C83DB9389B8F
:101D8600BEC43FE6416E36113DB97CC4BEC43FE6D3
:101D960041706D5D3DB9BBAEBEC43FE64172AE7DDE
:101DA6003DBA0514BEC43FE64174F9093DBA493D42
:101DB600BEC43FE641774D6A3DBA92A3BEC43FE634
:101DC6004179AC713DBAE148BEC43FE6417C15B5E8
:101DD6003DBB2AAEBEC43FE6417E8A093DBB7E912D
:101DE600BEC43FE6418084193DBBCD36BEC43FE646
:101DF6004181C8803DBC2118BEC43FE6418311D154
:101E06003DBC7A3ABEC43FE6418460423DBCCE1C2E
:101E1600BEC43FE64185B4053DBD273DBEC43FE691
:101E260041870D1B3DBD859DBEC43FE641886BEED7
:101E36003DBDDEBEBEC43FE64189D0B13DBE3D1DBF
:101E4600BEC43FE6418B3B303DBE9B7CBEC43FE6F5
:101E5600418CABD43DBEFF19BEC43FE6418E22681D
:101E66003DBF5D79BEC43FE6418F9EED3DBFC116C5
:101E7600BEC43FE64191212D3DC024B3BEC43FE61A
:101E86004192A8C13DC08851BEB4467440EDD8AE5B
:101E96003DA848BFBEB4467440F19CE03DA8390455
:101EA600BEB4467440F55A863DA82E88BEB4467424
:101EB60040F9119D3DA82E88BEB4467440FCC1551C
:101EC6003DA833C6BEB44674410036113DA8390458
:101ED600BEB44674410209033DA848BFBEB4467469
:101EE6004103DB233DA85DB7BEB446744105ACDAB9
:101EF6003DA877EEBEB4467441077CEE3DA8922518
:101F0600BEB4467441094AF53DA8B19ABEB44674BA
:101F1600410B154D3DA8D10FBEB44674410CDB8C68
:101F26003DA8F5C3BEB44674410E9DB23DA91A76CE
:101F3600BEB4467441105A863DA93F29BEB44674C4
:101F4600411211343DA9691ABEB446744113C155F4
:101F56003DA98890BEB4467441156C8B3DA9AD432E
:101F6600BEB446744117126F3DA9D1F6BEB446748D
:101F76004118B3683DA9F16BBEB44674411A4DD3FE
:101F86003DAA0BA2BEB44674411BE1483DAA25D921
:101F9600BEB44674411D6D5D3DAA3AD2BEB44674C8
:101FA600411EF2133DAA4A8CBEB446744120703BD2
:101FB6003DAA5508BEB446744121E9103DAA5A47C8
:101FC600BEB4467441235E353DAA5508BEB4467478
:101FD6004124D1B73DAA4A8CBEB44674412646DC9C
:101FE6003DAA3593BEB446744127C0833DAA161E4A
:101FF600BEB4467441293FE63DA9F16BBEB44674B2
:10200600412AC77A3DA9C77ABEB44674412C594BBA
:102016003DA98DCEBEB44674412DF6FD3DA9542290
:10202600BEB44674412FA29C3DA90FF9BEB44674B6
:1020360041315C923DA8C693BEB4467441332546F1
:102046003DA872B0BEB446744134FB7F3DA81ECD98
:10205600BEB446744136DD2F3DA7C06EBEB446748D
:102066004138C8B43DA7674DBEB44674413ABB304B
:102076003DA708EEBEB44674413CB2FF3DA6AA8F0A
:10208600BEB44674413EAD433DA6516EBEB44674E1
:102096004140A8583DA5FD8BBEB446744142A1CB34
:1020A6003DA5AEE6BEB44674414497F63DA56580AF
:1020B600BEB4467441468ADB3DA52696BEB4467438
:1020C60041487A103DA4F228BEB44674414A645A87
:1020D6003DA4C2F8BEB44674414C4AF53DA49E45A3
:1020E600BEB44674414E2EB23DA47ED0BEB44674F4
:1020F60041500F913DA469D7BEB446744151EF35A6
:102106003DA45A1DBEB446744153CD363DA454DE9B
:10211600BEB446744155AA653DA45A1DBEB4467464
:102126004157872B3DA46499BEB446744159645AFD
:102136003DA47992BEB44674415B43FE3DA493C967
:10214600BEB44674415D25AF3DA4B87CBEB44674AA
:10215600415F0B783DA4E26DBEB446744160F5C3A1
:102166003DA5119DBEB446744162E5C93DA54B49E6
:10217600BEB446744164DBF53DA58A33BEB44674ED
:102186004166D9E83DA5D399BEB446744168E00DD1
:102196003DA6223EBEB44674416AEE633DA67B5F11
:1021A600BEB44674416D06253DA6D480BEB44674C1
:1021B600416F26183DA7381DBEB4467441714F0EB7
:1021C6003DA7A0F9BEB4467441737FCC3DA80F135A
:1021D600BEB446744175B8BB3DA887A9BEB4467463
:1021E6004177F9DB3DA9003FBEB44674417A425BB4
:1021F6003DA98351BEB44674417C923A3DAA066419
:10220600BEB44674417EE9793DAA8EB4BEB4467426
:102216004180A40B3DAB1705BEB446744181D6A1DF
:102226003DABA494BEB4467441830CB33DAC32239B
:10223600BEB446744184460B3DACC4F0BEB446748D
:10224600418582DE3DAD57BCBEB446744186C3614E
:102256003DADEFC8BEB446744188075F3DAE82957A
:10226600BEB4467441894F423DAF1FDEBEB44674CC
:10227600418A9AD43DAFB7E9BEB44674418BEA4B66
:102286003DB05A71BEB44674418D3D713DB0F7BA4A
:10229600BEB44674418E94AF3DB19F80BEB44674C1
:1022A600418FF06F3DB24207BEB44674419150E58E
:1022B6003DB2E9CDBEB446744192B6463DB3919265
:1022C600BEB446744194205C3DB43958BEB44674DD
:1022D60041958EF33DB4E11EBEB44674419701D8D4
:1022E6003DB588E3BEB44674419878D53DB630A96D
:1022F600BEB446744199F3823DB6D86FBEB44674F7
:10230600419B71763DB78034BEB44674419CF2B0B1
:102316003DB822BCBEB44674419E76FD3DB8C54369
:10232600BEB44674419FFDF43DB96D09BEB4467412
:1023360041A187943DBA0F91BEB4467441A313A937
:102346003DBAB218BEB4467441A4A1963DBB54A092
:10235600BEB4467441A6315B3DBBF1E9BEB44674DA
:1023660041A7C28F3DBC9470BEB4467441A9553294
:102376003DBD36F8BEB4467441AAE8A73DBDD97F37
:10238600BEB4467441AC7D223DBE76C9BEB4467429
:1023960041AE12063DBF1950BEB4467441AFA78781
:1023A6003DBFBBD8BEB4467441B13D3C3DC05E5F47
:1023B600BEB4467441B2D2F23DC100E7BEC43FE6A8
:1023C60040E7AFB83DBAA25EBEC43FE640EB460B5F
:1023D6003DBA8D65BEC43FE640EED0E53DBA732EEC
:1023E600BEC43FE640F2511A3DBA58F7BEC43FE6B6
:1023F60040F5C77A3DBA3EC0BEC43FE640F93261F9
:102406003DBA1F4BBEC43FE640FC93753DBA05146A
:10241600BEC43FE640FFEC573DB9E59FBEC43FE66C
:1024260041019E843DB9C62ABEC43FE64103432D01
:102436003DB9A6B5BEC43FE64104E48F3DB9874029
:10244600BEC43FE64106837B3DB967CBBEC43FE6CB
:1024560041081FF33DB94856BEC43FE64109B98C51
:102466003DB928E1BEC43FE6410B4FDF3DB9096CDB
:10247600BEC43FE6410CE2823DB8E4B8BEC43FE6C6
:10248600410E70A43DB8C543BEC43FE6410FF909ED
:102496003DB8A5CEBEC43FE641117C1C3DB8811BAC
:1024A600BEC43FE64112FAAD3DB861A6BEC43FE6E2
:1024B600411475253DB83CF3BEC43FE64115ECC05A
:1024C6003DB81840BEC43FE6411763203DB7F8CB80
:1024D600BEC43FE64118DA513DB7D417BEC43FE645
:1024E600411A54613DB7AF64BEC43FE6411BD2F208
:1024F6003DB78FEFBEC43FE6411D573F3DB76B3C2E
:10250600BEC43FE6411EE2823DB74BC7BEC43FE6AE
:10251600412076603DB72713BEC43FE6412213A98A
:102526003DB7079EBEC43FE64123BB303DB6ED67CF
:10253600BEC43FE641256DC63DB6CDF2BEC43FE6FC
:10254600412729C73DB6B3BCBEC43FE64128F007C4
:102556003DB69985BEC43FE6412AC01A3DB6848C75
:10256600BEC43FE6412C99313DB66F93BEC43FE6EB
:10257600412E7B4A3DB65FD9BEC43FE641306595E4
:102586003DB6501EBEC43FE6413256D63DB6406407
:10259600BEC43FE641344E3C3DB635E7BEC43FE6D9
:1025A60041364B5E3DB630A9BEC43FE641384C309D
:1025B6003DB62B6BBEC43FE6413A4F763DB62B6B1C
:1025C600BEC43FE6413C53F83DB62B6BBEC43FE666
:1025D600413E58103DB630A9BEC43FE641405B5768
:1025E6003DB635E7BEC43FE641425D643DB6406454
:1025F600BEC43FE641445DCC3DB64AE0BEC43FE6BC
:1026060041465C923DB65A9BBEC43FE641485A1DC0
:102616003DB66A55BEC43FE6414A566D3DB67F4E4D
:10262600BEC43FE6414C51EC3DB69446BEC43FE6BF
:10263600414E4D6A3DB6AE7DBEC43FE64150488030
:102646003DB6C8B4BEC43FE6415243963DB6E829FE
:10265600BEC43FE641543F143DB7079EBEC43FE6A5
:1026660041563BCD3DB72C52BEC43FE641583A2AAF
:102676003DB75105BEC43FE6415A3A933DB77AF697
:10268600BEC43FE6415C3D713DB7A4E8BEC43FE62B
:10269600415E432D3DB7CED9BEC43FE641604C30C6
:1026A6003DB7FE09BEC43FE6416258793DB8327671
:1026B600BEC43FE6416469443DB866E4BEC43FE635
:1026C60041667E913DB8A090BEC43FE641689A023D
:1026D6003DB8DA3CBEC43FE6416ABC6A3DB913E880
:1026E600BEC43FE6416CE6323DB952D2BEC43FE6B7
:1026F600416F182B3DB996FBBEC43FE64171532688
:102706003DB9DB23BEC43FE6417397F63DBA1F4B86
:10271600BEC43FE64175E6323DBA68B2BEC43FE686
:1027260041783F143DBAB218BEC43FE6417AA2349E
:102736003DBB00BDBEC43FE6417D0FF93DBB4F61C9
:10274600BEC43FE6417F87FD3DBB9E06BEC43FE655
:10275600418105533DBBF1E9BEC43FE641824BC70B
:102766003DBC45CCBEC43FE6418397243DBC99AFF2
:10277600BEC43FE64184E7A13DBCF2D0BEC43FE6FD
:1027860041863D713DBD4BF1BEC43FE6418798C8C9
:102796003DBDAA50BEC43FE64188F9DB3DBE03718C
:1027A600BEC43FE6418A60DF3DBE61D0BEC43FE69F
:1027B600418BCDD33DBEC56DBEC43FE6418D40ECD9
:1027C6003DBF23CDBEC43FE6418EB9C13DBF876A3A
:1027D600BEC43FE6419038BB3DBFEB07BEC43FE6F3
:1027E6004191BD3C3DC04EA5BEC43FE6419346DC8B
:1027F6003DC0B242BEC43FE64194D59B3DC115DF04
:10280600BEC43FE6419669793DC17EBBBEC43FE684
:10281600419801D83DC1E258BEC43FE641999E8425
:102826003DC24B34BEC43FE6419B3F7D3DC2B40F23
:10283600BEC43FE6419CE48F3DC31CEBBEC43FE6ED
:10284600419E8D503DC38088BEC43FE641A03958A5
:102856003DC3E964BEC43FE641A1E8733DC4523FAF
:10286600BEC43FE641A39A023DC4BB1BBEC43FE6BD
:1028760041A54D9F3DC523F6BEC43FE641A703478C
:102886003DC58CD2BEC43FE641A8BA2A3DC5F5AEC9
:10289600BEC43FE641AA727C3DC65E89BEC43FE621
:1028A60041AC2B9F3DC6CCA3BEC43FE641ADE5601F
:1028B6003DC7357EBEC43FE641AF9F8A3DC79E5A9F
:1028C600BEC43FE641B15A1D3DC80735BEC43FE60A
:1028D60041B314AF3DC8754FBEC43FE641B4CF42C5
:1028E6003DC8DE2BBEC43FE641B689D53DC9470685
:1028F600BE9C5048415682AA3DC3C9EF3F0652BD11
:102906004155793E3DC922533ED5DCC6415A340570
:102916003DC19E303EB096BC416395EA3DBD07C8B9
:102926003E9381D8416C57A83DB9CB683E76AE7DC3
:102936004173C49C3DB75B813E4D1B714179C56DAA
:102946003DB56EAD3E2872B0417EAB9F3DB3DAF920
:102956003E0793DE41815BC03DB2862F3DD35A864A
:10296600418307943DB160953D9CE0764184652C9A
:102976003DB05FAF3D54FDF44185816F3DAF7E3D77
:102986003CEE6320418669AD3DAEB7023BFC504844
:10299600418728F63DADFF82BD813A934155617C62
:1029A6003DBDE3FC3F21C4334153617C3DCA7C5BA2
:1029B6003F0219654157339C3DC77EE53EDA43FE2B
:1029C600415F353F3DC592103EBA36E34166BB993D
:1029D6003DC423103E9FF2E5416D0D1B3DC2F83804
:1029E6003E89A0274172353F3DC1FC8F3E6C22686F
:1029F600417680343DC1259A3E495183417A18FC7F
:102A06003DC0639D3E29C77A417D2BD43DBFB69A12
:102A16003E0D013B417FCC643DBF1E8E3DE4F76613
:102A2600418105883DBE8BC13DB39C0F4181FCEEC3
:102A36003DBE08AF3D8587944182D3263DBD8ADBE6
:102A4600BD94E3BD418943613DAB94D9BE0C49BAFF
:102A5600418A55D03DA9E6EFBE43E426418ABCD360
:102A66003DA8A1E0BE743958418AA1623DA7967D72
:102A7600BE8F7660418A1E1B3DA6B50BBEA29C7812
:102A8600418954613DA5EDD0BEB404EA418863F1A5
:102A96003DA53B8EBEC3FE5D418764263DA49907D6
:102AA600BED2B021418662823DA4063ABEE05BC03A
:102AB600418564F73DA378ABBEED0E564184703B6D
:102AC6003DA2FAD7BEF8FC50418386F73DA282416B
:102AD600BF0219654182AB023DA20EE9BF0765FE42
:102AE6004181DCFB3DA1A0CFBF0C63F141811D15E7
:102AF6003DA13D32BF11205C41806C223DA0D9949E
:102B0600BF15A858417F96BC3DA07B35BF19F55A25
:102B1600417E76603DA01CD6BF1E0DED417D758EB3
:102B26003D9FC8F3BF21FF2E417C902E3D9F75101F
:102B3600BF25B574417BC5053D9F266CBF15810633
:102B4600417FAE143D9F9485BF0CB924417F0FF998
:102B56003D9FBE77BF043FE6417E75253D9FE868F1
:102B6600BEF851EC417DDE013DA01CD6BEE90FF951
:102B7600417D4A233DA05682BEDAD42C417CB98CD5
:102B86003DA0956CBECD9E84417C2B6B3DA0D99417
:102B9600BEC1A36E417BA0903DA11DBDBEB6E2EBBA
:102BA600417B182B3DA16C61BEAD7732417A93759E
:102BB6003DA1BB06BEA56D5D417A12063DA2142756
:102BC600BE9EC56D417994AF3DA26D48BE99999A56
:102BD60041791BDA3DA2D0E5BE95DCC64178A7F067
:102BE6003DA33483BE93A92A417839583DA3A29CBC
:102BF600BE92E48F4177D0E53DA415F4BE9381D80B
:102C060041776E983DA493C9BE9573EB4177126FD9
:102C16003DA516DBBE98A0904176BC6A3DA59F2CCB
:102C2600BE9D07C841766BBA3DA631F9BEA2824168
:102C360041761F8A3DA6CA04BEA91D154175D7DC7B
:102C46003DA7674DBEB0BE0E417593753DA809D52B
:102C5600BEB97247417552543DA8B6D8BEC31F8A45
:102C6600417514123DA9691ABECDC5D64174D8AEB8
:102C76003DAA209BBED958104174A0273DAADD5914
:102C8600BEE5C91D41746A163DAB9F56BEF30BE106
:102C96004174367A3DAC6690BF007C85417405BCB4
:102CA6003DAD3309BF07C1BE4173D70A3DADFF82B3
:102CB600BF0F559B4173AA653DAED139BF172B0295
:102CC600417380343DAFA82FBF1F4F0E4173587913
:102CD6003DB079E6BF27BB30417333333DB156195A
:102CE600BF306F69417310CB3DB22D0EBF3D1B71D6
:102CF600417439C13DABD3C3BF4318FC41742F8324
:102D06003DAC5198BF491D1541742A993DACD4AAD2
:102D1600BF4F141241742B023DAD57BCBF550B0F6C
:102D2600417430BE3DADE00DBF5AFB7F41743B643C
:102D36003DAE685EBF60E56041744B5E3DAEF5ED4D
:102D4600BF66C8B4417461133DAF837BBF6C9EED13
:102D560041747B4A3DB0110ABF72752541749A6B66
:102D66003DB0A3D7BF783E424174BE773DB136A48D
:102D7600BF7DFA444174E6323DB1CEAFBF81D7DCA8
:102D8600417512063DB266BABF84AC0841754189E9
:102D96003DB30404BF8779A7417573EB3DB3A14DDD
:102DA600BF8A40B84175A9FC3DB443D4BF8D0481A8
:102DB6004175E2EB3DB4E65CBF8FBE7741761EB847
:102DC6003DB58E22BF9271DE41765D643DB63B25F0
:102DD600BF951B7141769E843DB6E829BF97C1BE5B
:102DE6004176E2193DB7952DBF9A5E354177282485
:102DF6003DB8476FBF9CF0D8417770A43DB8FEEF51
:102E0600BF9F7CEE4177BB303DB9B670BC9C779ACC
:102E160041855CC63DBBB83DBDB0F27C4186B5740C
:102E26003DBA493DBE125461418744333DB90EAAAD
:102E3600BE4432CA4187374C3DB7FE09BE70068E86
:102E46004186B9243DB7121BBE8B851F4185ECC058
:102E56003DB63B25BE9D14E44184F27C3DB57929FF
:102E6600BEAD1B714183E6663DB4CC25BEBBC01A20
:102E76004182DABA3DB4299EBEC951834181D94BFC
:102E86003DB39192BED5DCC64180E7043DB3040450
:102E9600BEE1A36E418005BC3DB280F1BEECB296A8
:102EA600417E6D5D3DB2085BBEF70A3D417CF41F75
:102EB6003DB19503BF006F69417B9EED3DB126E9AB
:102EC600BF05182B417A6D5D3DB0BE0EBF0985F07A
:102ED60041795E353DB05FAFBF0DBF48417871DEC9
:102EE6003DB00150BF11CAC14177A8C13DAFA82F5F
:102EF600BF15A8584177020C3DAF4F0EBF1951833D
:102F060041767BB33DAF0069BF1182AA417A8B44FB
:102F16003DAD18D2BF1182AA417A17C23DAD09183C
:102F2600BF1182AA4179A8C13DACF95DBF1182AA41
:102F360041793E423DACEEE1BF1182AA4178D639D5
:102F46003DACE9A3BF1182AA4178710D3DACEEE11B
:102F5600BF1182AA41780DED3DAD03DABF1182AAF9
:102F66004177AD433DAD288DBF1182AA417750B15F
:102F76003DAD6777BF1182AA4176F8383DADC0985E
:102F8600BF1182AA4176A5E33DAE33F0BF1182AAF6
:102F96004176594B3DAECBFBBF1182AA417612D783
:102FA6003DAF7E3DBF1182AA4175D2203DB04FF4A0
:102FB600BF1182AA417596BC3DB13BE2BF1182AA00
:102FC60041755F703DB24207BF1182AA41752C3D23
:102FD6003DB357E6BF1182AA4174FC503DB47D80D3
:102FE600BF1182AA4174CFAB3DB5B2D5BF1182AA3B
:102FF6004174A5E33DB6E829BF1182AA4174809DBC
:103006003DB822BCBF1182AA41745F073DB95D4F2E
:10301600BF1182AA417441F23DBA92A3BF1182AA9E
:10302600417429C73DBBC2B9BF1182AA417416F0CB
:103036003DBCF80EBF1182AA4174096C3DBE2D62DB
:10304600BF1182AA4174013B3DBF62B7BF1182AA7C
:103056004173FE5D3DC092CDBF1182AA417400D27C
:103066003DC1BDA5BF1182AA417407C83DC2DE019C
:10307600BF1182AA417412063DC3F3E0BF1182AAB2
:1030860041741EB83DC4FA05BF1182AA41742DE0F1
:103096003DC5F06FBF1182AA41743EAB3DC6D71F36
:1030A600BF1182AA4174511A3DC7AE14BF1182AA3C
:1030B6004174652C3DC87A8DBF637B4A4173E7D561
:1030C6003DC67DFEBF68240B4173E4F73DC76F2AFA
:1030D600BF6CBFB14173E48F3DC85B18BF7154CA62
:1030E6004173E69B3DC94C44BF75E3544173EAB353
:1030F6003DCA3D71BF7A5E354173F1413DCB295FD3
:10310600BF7ED2894173FAAD3DCC1A8BBF819CE05C
:103116004174068E3DCD0BB7BF83C9EF417414E4ED
:103126003DCDFCE3BF85F06F417425AF3DCEEE0F7C
:10313600BF881062417439C13DCFD9FDBF8A29C706
:10314600417450B13DD0CB29BF8C3C9F41746A7FFE
:103156003DD1BC56BF8E45A2417487943DD2AD8207
:10316600BF9048174174A8583DD39EAEBF9243FE08
:103176004174CBFB3DD48FDABF9436114174F3B65C
:103186003DD58106BF961E4F41751EB83DD672329B
:10319600BF98000041754D6A3DD7635EBF99D7DC85
:1031A6004175809D3DD84F4CBF9BA5E34175B71730
:1031B6003DD94079BF9D6A164175F27C3DDA31A54D
:1031C600BF9F2474417631903DDB22D1BFA0D4FE4F
:0831D600417675253DDC13FD77
:0841B9008F478E468D458C44B2
:1041C100AB4BAA4AA949A848AF53AE52AD51AC5026
:1041D100123A9B85476F85466E85456D85446C1205
:1041E1004F69E4FBFA798078BF1238A1C004C00599
:1041F100C006C007AF47AE46AD45AC44AB4FAA4E73
:10420100A94DA84C123992A804A905AA06AB07D05A
:1042110007D006D005D004123A9B8F578E568D5584
:104221008C54E4FFFE7D407C40AB57AA56A955A8AB
:1042310054123B3860025003024344AF4FAE4EADBF
:104241004DAC4CAB47AA46A945A844123992E4FBB0
:10425100FA79407840123992E4FBFA7980783F127A
:1042610038A1C004C005C006C007AB47AA46A9458E
:10427100A844E4FFFE7D807C3F123A9B8F6F8E6ED7
:104281008D6D8C6CD007D006D005D004124F69AB70
:104291004BAA4AA949A8481239928F5B8E5A8D5967
:1042A1008C58AF4FAE4EAD4DAC4CAB47AA46A9456D
:1042B100A844123992E4FBFAF97840123992E4FBEE
:1042C100FA7980783F1238A1C004C005C006C00742
:1042D100AB47AA46A945A844E4FFFE7D807C3F1276
:1042E1003A9B8F6F8E6E8D6D8C6CD007D006D0058A
:1042F100D004124F69AB4BAA4AA949A84812399276
:10430100A804A905AA06AB07AF5BAE5AAD59AC58D4
:1043110012389D8F5F8E5E8D5D8C5CAB5BAA5AA956
:1043210059A858AF53AE52AD51AC5012389DAB5F46
:10433100AA5EA95DA85C123A9BE4FBFA7940784039
:10434100024458E4FFFE7D407CC0AB57AA56A955F4
:10435100A854123B38400302445BAF4FAE4EAD4D03
:10436100AC4CAB47AA46A945A844123992E4FBFAE2
:10437100794078C0123992E4FBFA7980783F12389B
:10438100A1C004C005C006C007AB47AA46A945A8FD
:1043910044E4FFFE7D807C3F123A9B8F6F8E6E8DD1
:1043A1006D8C6CD007D006D005D004124F69AB4B91
:1043B100AA4AA949A8481239928F638E628D618CED
:1043C10060AF4FAE4EAD4DAC4CAB47AA46A945A828
:1043D10044123992E4FBFAF978C0123992E4FBFAFB
:1043E1007980783F1238A1C004C005C006C007AB70
:1043F10047AA46A945A844E4FFFE7D807C3F123AC6
:104401009B8F6F8E6E8D6D8C6CD007D006D005D0D2
:1044110004124F69AB4BAA4AA949A848123992AB79
:1044210063AA62A961A86012389D8F678E668D6547
:104431008C64AB63AA62A961A860AF53AE52AD515F
:10444100AC5012389DAB67AA66A965A864123A9B65
:10445100E4FBFA794078C00238A1AF57AE56AD55AA
:02446100AC5459
:014463002236
:024C1B008F2DDB
:104C1D00E532C39404407975F0CCEFA42496F58267
:104C2D00E5F03401F583EF75F003A42583F5837565
:104C3D00F00CE532123E9A123E6E8F378E368D3560
:104C4D008C3475F0CCE52DA4249AF582E5F0340171
:104C5D00F583E52D75F003A42583F58375F00CE53B
:104C6D0032123E9A123E6E8F3B8E3A8D398C3875CC
:104C7D00F0CCE52DA4249EF582E5F03401F583E515
:104C8D002D75F003A42583F58375F00CE532805B5B
:104C9D0075F0A8E52DA42476F582E5F03400F583B2
:104CAD0075F00CE533123E9A123E6E8F378E368DAF
:104CBD00358C3475F0A8E52DA4247AF582E5F03411
:104CCD0000F58375F00CE533123E9A123E6E8F3B64
:104CDD008E3A8D398C3875F0A8E52DA4247EF58299
:104CED00E5F03400F58375F00CE533123E9A123E73
:104CFD006E8F3F8E3E8D3D8C3C853B4B853A4A8574
:104D0D003949853848853F4F853E4E853D4D853C1B
:104D1D004C853153853052852F51852E50AF37AE8E
:084D2D0036AD35AC341241B97A
:014D3500225B
:024D36008F2DBF
:104D3800E532C39404407975F0CCEFA4247EF58263
:104D4800E5F0340AF583EF75F003A42583F5837540
:104D5800F00CE532123E9A123E6E8F378E368D3544
:104D68008C3475F0CCE52DA42482F582E5F0340A64
:104D7800F583E52D75F003A42583F58375F00CE51F
:104D880032123E9A123E6E8F3B8E3A8D398C3875B0
:104D9800F0CCE52DA42486F582E5F0340AF583E508
:104DA8002D75F003A42583F58375F00CE532805B3F
:104DB80075F0A8E52DA4245EF582E5F03409F583A5
:104DC80075F00CE533123E9A123E6E8F378E368D93
:104DD800358C3475F0A8E52DA42462F582E5F0340D
:104DE80009F58375F00CE533123E9A123E6E8F3B3F
:104DF8008E3A8D398C3875F0A8E52DA42466F58295
:104E0800E5F03409F58375F00CE533123E9A123E4D
:104E18006E8F3F8E3E8D3D8C3C853B4B853A4A8557
:104E28003949853848853F4F853E4E853D4D853CFF
:104E38004C853153853052852F51852E50AF37AE72
:084E480036AD35AC341241B95E
:014E5000223F
:024464008F2D9A
:10446600E536D39418400302452875F024EFA424BA
:104476000EF582E5F0340EF583EF75F006A425837C
:10448600F583C083C082E4FFFEFD7C40AB35AA34D1
:10449600A933A832123992123BEFD082D08375F03D
:1044A6000CEF123E9AEE75F00CA42583F583123EAE
:1044B6006E8F3A8E398D388C3775F024E52DA4240D
:1044C60012F582E5F0340EF583E52D75F006A42588
:1044D60083F583C083C082E4FFFEFD7C40AB35AA32
:1044E60034A933A832123992123BEFD082D08375A9
:1044F600F00CEF123E9AEE75F00CA42583F58312AC
:104506003E6E8F3E8E3D8D3C8C3B75F024E52DA492
:104516002416F582E5F0340EF583E52D75F00602D6
:1045260045DF75F034E52DA42476F582E5F03418E0
:10453600F583E52D75F005A42583F583C083C08238
:10454600E4FFFEFD7C40AB35AA34A933A83212390C
:1045560092123BEFD082D08375F00CEF123E9AEEAA
:1045660075F00CA42583F583123E6E8F3A8E398D35
:10457600388C3775F034E52DA4247AF582E5F034CD
:1045860018F583E52D75F005A42583F583C083C052
:1045960082E4FFFEFD7C40AB35AA34A933A8321273
:1045A6003992123BEFD082D08375F00CEF123E9A0F
:1045B600EE75F00CA42583F583123E6E8F3E8E3D7C
:1045C6008D3C8C3B75F034E52DA4247EF582E5F018
:1045D6003418F583E52D75F005A42583F583C0838E
:1045E600C082E4FFFEFD7C40AB35AA34A933A83275
:1045F600123992123BEFD082D08375F00CEF123E47
:104606009AEE75F00CA42583F583123E6E8F428ECA
:10461600418D408C3F853E4B853D4A853C49853BD7
:104626004885424F85414E85404D853F4C853153E7
:10463600853052852F51852E50AF3AAE39AD38AC04
:04464600371241B92D
:01464A00224D
:024996008F2D63
:10499800E536C39404407975F0CCEFA42416F5826B
:1049A800E5F0342AF583EF75F003A42583F58375C4
:1049B800F00CE536123E9A123E6E8F3B8E3A8D39D8
:1049C8008C3875F0CCE52DA4241AF582E5F0342A4C
:1049D800F583E52D75F003A42583F58375F00CE5C3
:1049E80036123E9A123E6E8F3F8E3E8D3D8C3C7540
:1049F800F0CCE52DA4241EF582E5F0342AF583E5F4
:104A08002D75F003A42583F58375F00CE536805BDE
:104A180075F0A8E52DA424F6F582E5F03428F58391
:104A280075F00CE537123E9A123E6E8F3B8E3A8D2A
:104A3800398C3875F0A8E52DA424FAF582E5F03410
:104A480028F58375F00CE537123E9A123E6E8F3FBB
:104A58008E3E8D3D8C3C75F0A8E52DA424FEF58294
:104A6800E5F03428F58375F00CE537123E9A123ECE
:104A78006E8F438E428D418C40853F4B853E4A85E3
:104A88003D49853C4885434F85424E85414D85408B
:104A98004CAF35AE34AD33AC32A804A905AA06AB89
:104AA80007123992C004C005C006C0077F007E40C7
:104AB8007D1C7C46AB31AA30A92FA82E123992D082
:104AC80003D002D001D000123A9B8F538E528D51E1
:0D4AD8008C50AF3BAE3AAD39AC381241B94D
:014AE50022AE
:1057F100EFAF3EAE3DAD3CAC3BAB42AA41A940A8A8
:105801003F600C1238A1E4FBFA795078C1800A128A
:1058110038A1E4FBFA795078411238A1E4FBFAF996
:065821007840123A9B22C0
:06006B00E4F5A3F5A1225B
:105A1D0075A4FF75A5FF75A6FF75A7FF75E3402259
:0400270075B2172275
:105A0B001200031258B312006B125A1D1200270218
:025A1B00000E7B
:0700030075FFDE75FFAD2261
:0A000E0075A8AA75E70175F7012235
:1058B300758850758911758AB0758BB0758C3C7578
:1058C3008D3C75C80475CA01E4F5CB75CC01F5CDE3
:0E58D300759104759201759401F595F5932277
:10590F00EFD39400402190006E74C8F090006D7436
:10591F0003F090006DE014F0E070F790006EE0146B
:07592F00F0E070E81F80D9D1
:01593600224E
:10002E009000707401F090006F7402F090006E7486
:10003E0001F090006D7401F090006DE014F0E0702E
:10004E00F790006EE014F0E070E890006FE014F0AE
:0C005E00E070D9900070E014F0E070CA6F
:01006A002273
:1058E10090006F7405F090006E740CF090006D7470
:1058F100AFF090006DE014F0E070F790006EE014EE
:0D590100F0E070E890006FE014F0E070D965
:01590E002276
:1059F2003005057510288003751004D2B55384DF75
:095A0200758BB0758D3CD28E222B
:09001E00E4F5CD75CC01D2CA2233
:10389A00023C5BE86480F8E933E83360110460F0C5
:1038AA00ED33EC337009E8FCE9FDEAFEEBFF220494
:1038BA0060DED3EB9FEA9EE99DE8C2E78CF0C2F78F
:1038CA0095F0400CE8CCF8E9CDF9EACEFAEBCFFB5B
:1038DA00123C2685D0F05804700320D5B3E8047052
:1038EA00075002B2D5023C6592D5EC0460F7E4CCED
:1038FA00C0E0C398F8603B94186008400DD0E0FB24
:10390A00023C3DE4FBFAC9FC8028E830E406E4C93D
:10391A00FBE4CAFCE830E305E4C9CACBFCE8540777
:10392A006010F8C3E913F9EA13FAEB13FBEC13FC82
:10393A00D8F130F52FC3E49CFCEF9BFFEE9AFEED25
:10394A0099FDD0E0FBEF4E4D4C701222DB03023C96
:10395A0062EC2CFCEF33FFEE33FEED33FDED30E786
:10396A00EB023C3DEF2BFFEE3AFEED39FDD0E0FBDA
:10397A0050130BBB0003023C65ED13FDEE13FEEF83
:08398A0013FFEC13FC023C3DAD
:10399200EC4D6011E8497017ED33EC3304600DE42F
:1039A200FCFFFEFD22E933E8330470F8023C5B12AF
:1039B2003C2658046009E4CC2481500628500902B0
:1039C2003C65284003023C62C0E0EB4A7044B98087
:1039D20006D0E0FB023C51EF4E701CBD8008EBFFAD
:1039E200EAFEE9FD80EBE98DF0A4FEE5F0023A7B08
:1039F200E9CDF9EAFEEBFFEF89F0A4FCE5F0CE8910
:103A0200F0A42EFFE435F0CD89F0A42DFEE435F0CC
:103A12008067EF4E7005BD80D780C3EF8BF0A4ACFA
:103A2200F0EE8BF0A42CFCE435F0F8EF8AF0A42C35
:103A3200E5F038FCE433CB8DF0A42CFCE5F03BF848
:103A4200EE8AF0A42CFCE5F038F8E433CF89F0A438
:103A52002CFCE5F038CF3400CE89F0A42FFFE5F03E
:103A62003EFEE433C98DF0A42EFEE5F039CD8AF096
:103A7200A42FFFE5F03EFEE43DFD33D0E0FB50070E
:103A82000BBB000F023C65EC2CFCEF33FFEE33FE68
:063A9200ED33FD023C3D96
:103A9800023C65EC5D046005E859047003023C5B78
:103AA800123C26580460F6EC4860F2EC7004FDFE07
:103AB800FF22C860DB2481C85009C3986002500601
:103AC800023C629850CAF582E9294B4A7005AB82DC
:103AD800023C5175F0007C1A7880C3EF9BEE9AED9A
:103AE80099400DC3EF9BFFEE9AFEED99FDE842F079
:103AF800DC23ACF0D0E0FFD0E0FED0E0FDAB8220CC
:103B0800E7101BEB60BAEC2CFCEF33FFEE33FEED55
:103B180033FD023C3DE803F830E705C0F075F000DE
:103B2800EF2FFFEE33FEED33FD40B830E7C280AA39
:103B380074F8CC6480CCC86480C8F58204604FC334
:103B4800EB9FF5F0EA9E42F0E99D42F0E89C45F0D3
:103B5800603C501DE5825FFFE582D313CB5BCBF45D
:103B68002B5582FB50280ABA002409B90020088086
:103B78001DE5825BFBE582D313CF5FCFF4C3132F20
:103B88005582FF50090EBE00050DBD00010CC3EBA8
:103B98009FF5F0EA9E42F0E99D42F0E89C45F0600E
:093BA80007CC4820E701B3EC2230
:103BB10075F020800E75F010800575F0087D007E8F
:103BC100007F003392D530D503123E60EC334010B4
:103BD100EF33FFEE33FEED33FDEC33FCD5F0ED2298
:0E3BE100E5F0247EA2D513CC92E7CDCEFF22D4
:103BEF00EDD2E7CD33EC3392D524814006E4FFFECE
:103BFF00FDFC22FCE4CFCECDCC24E0501174FF802D
:103C0F00EDC3CC13CCCD13CDCE13CECF13CF0470C9
:073C1F00F030D5DE023E602B
:104F69008F6B8E6A8D698C68E4FFFE7D807C3FAB18
:104F79006BAA6AA969A868123B387009AF6BAE6A57
:104F8900AD69AC6822AF6BAE6AAD69AC68123C70B2
:104F9900FBAF6FAE6EAD6DAC6C123C70FFBF01081C
:104FA900E4FFFE7D807C3F22EF64046022EB640411
:104FB900601DBB0127E4FFFEFDFCAB6FAA6EA96D66
:104FC900A86C123B3860084006E4FFFEFDFC227421
:104FD900FFF56FF56EF56DF56C025077E4F570F538
:104FE90071FFFEFDFCAB6BAA6AA969A868123B3880
:104FF900504BAF6FAE6EAD6DAC6C123BEF8E708FD8
:1050090071AC70AD71EC123BB6C8ECC8C9EDC9CA38
:10501900EECACBEFCBAF6FAE6EAD6DAC6C12389DF7
:10502900E4FBFAF9F8123B3870A5AF6BAE6AAD69CB
:10503900AC68123C8A8F6B8E6A8D698C68AF6BAED7
:105049006AAD69AC68124B1AAB6FAA6EA96DA86CF0
:105059001239921253CC8F6F8E6E8D6D8C6CE571F7
:1050690030E00B123C8A8F6F8E6E8D6D8C6CAF6F3A
:07507900AE6EAD6DAC6C22C0
:103C2600E9D2E7C933E833F892D5EDD2E7CD33ECE4
:073C360033FC5002B2D5225D
:103C3D00EC30E7100FBF000C0EBE00080DBD0004E8
:103C4D000BEB6014A2D5EB13FCED92E7FD2274FF94
:103C5D00FCFDFEFF22E480F8A2D574FF13FC7D80ED
:033C6D00E480EF01
:103C7000ED33EC33601004700FED547F7005740267
:0A3C800092E0227404220422E422E0
:103C8A00ED33EC33600A047003BD8004ECB2E7FC48
:013C9A002207
:1053940033DA929E35B16011377FE5FE3921848975
:1053A4003AAEC3FF3C1D955B3D6358473E75FDF027
:1053B4003F3172183F800000C2D5023C65023C5B5D
:1053C400BD80FA50F3023C62ED33EC330460F17BB0
:1053D4003B7AAA79B8783F123992ED33EC3392D5FF
:1053E400247B5011A2D570DB500BED448024045073
:1053F40004A2D580CEEFFBEEFAEDF9ECF8123BEF08
:10540400EFF582F404FC123BBB1238A1C082905326
:10541400947409123CAAED33CC33D0F092D525F024
:0A542400A2D57001C313CC13FD22C2
:104AE6003E9248DA3ECCCCCD3F2AAAAB400000002D
:104AF6003F8000003F9837F03FB504F33FD744FCB2
:104B06003E3172173EB172173F0515913EDE5BD9F5
:104B1600D2048002C204EDD2E7F8CD33EC33047040
:104B26000BBD800592D5023C65023C5B40FBD3146D
:104B360060F2F5F07C3FEE7A00C39496C8948B4001
:104B4600230AC89469C8941A401A0AC89468C89473
:104B56001F40110AC8945AC89425400805F07A00E7
:104B6600CDC2E7CDC0F08C728D738E748F75EA233B
:104B760023C0E024F6F582E4344AF583123E7E1221
:104B860038A1ECC0E0EDC0E0EEC0E0EFC0E0123EC0
:104B96006EA872A973AA74AB7512389DD0E0FBD0CB
:104BA600E0FAD0E0F9D0E0B2E7F8123A9B8C728DC9
:104BB600738E748F75904AE67403123C9BA872A993
:104BC60073AA74AB75123992D0E0600F2402F58295
:104BD600E4344BF583123E7E1238A18C728D738EAF
:104BE600748F75D0E0C3947FFDE49400FC123BB64D
:104BF6007B187A727931783F123992A872A973AA12
:104C060074AB751238A130040B7BD97A5B79DE78E8
:054C16003E123992225C
:103C9B00C0E0EFFBEEFAEDF9ECF8123992D0E0F55B
:103CAB00F0EFFBEEFAEDF9ECF8123E6EA3A3A3A333
:103CBB00E8C0E0E9C0E0EAC0E0EBC0E0C0F01239D8
:103CCB0092123E7EA3A3A3A31238A1D0F0D0E0FBA7
:0D3CDB00D0E0FAD0E0F9D0E0F8D5F0D42226
:0300000002542E79
:0C542E00787FE4F6D8FD75817502547596
:103CE800E709F608DFFA8046E709F208DFFA803EBE
:103CF80088828C83E709F0A3DFFA8032E309F608AB
:103D0800DFFA8078E309F208DFFA807088828C8312
:103D1800E309F0A3DFFA806489828A83E0A3F608C6
:103D2800DFFA805889828A83E0A3F208DFFA804CA0
:103D380080D280FA80C680D4806980F28033801077
:103D480080A680EA809A80A880DA80E280CA8033E0
:103D580089828A83ECFAE493A3C8C582C8CCC58358
:103D6800CCF0A3C8C582C8CCC583CCDFE9DEE78028
:103D78000D89828A83E493A3F608DFF9ECFAA9F0A7
:103D8800EDFB2289828A83ECFAE0A3C8C582C8CCFD
:103D9800C583CCF0A3C8C582C8CCC583CCDFEADE16
:103DA800E880DB89828A83E493A3F208DFF980CC78
:103DB80088F0EF60010E4E60C388F0ED2402B40471
:103DC8000050B9F582EB2402B4040050AF23234518
:063DD8008223903D3873C8
:103DDE00BB010CE58229F582E5833AF583E022509A
:103DEE0006E92582F8E622BBFE06E92582F8E222E4
:0D3DFE00E58229F582E5833AF583E49322FE
:103E0B00BC000BBE0029EF8DF084FFADF022E4CC9B
:103E1B00F875F008EF2FFFEE33FEEC33FCEE9DEC64
:103E2B00984005FCEE9DFE0FD5F0E9E4CEFD22EDAA
:103E3B00F8F5F0EE8420D21CFEADF075F008EF2FF4
:103E4B00FFED33FD4007985006D5F0F222C398FDE5
:053E5B000FD5F0EA2282
:0E3E6000C3E49FFFE49EFEE49DFDE49CFC2273
:103E6E00E493FC740193FD740293FE740393FF229A
:103E7E00E493F8740193F9740293FA740393FB229A
:0C3E8E00ECF0A3EDF0A3EEF0A3EFF022A7
:0C3E9A00A42582F582E5F03583F5832233
:10543A000255C7E493A3F8E493A34003F68001F26C
:10544A0008DFF48029E493A3F85407240CC8C33373
