:100FB000120FDD120F01120003120ECA120CAE1234
:080FC0000B8B439104020E04A7
:100FDD0012100B120076120FC8120DA0120F9602EE
:020FED000FEF04
:0B100B00C2AF75FFDE75FFADD2AF2253
:0400760075B2172226
:100FC80043E10475E34075A33475A6FF75A7E7757B
:050FD800B502C2B522C4
:100F9600438920438780438E10758DFF758BFFD262
:0A0FA6008EC29FD29ED29CD2AC22D4
:100FEF0075BB0643D103D2EFC2EBD2EA43E702222D
:1009760042757A7A657220202020202020202020AF
:100986002020202020202020202020202020202061
:10099600005852414D2020202020202020202020B9
:1009A6002020202020202020202020202020202041
:1009B60020005852414D2020202020202020202099
:1009C60020204552524F5220202020202020202037
:1009D6002020005852414D20202020202020202079
:1009E600202020524541445920202020202020202C
:1009F60020202000463032302045564D2020202031
:100A060020202020544553542050524F4752414DE8
:100A16004D452020004C4544312020202020202018
:100A260020202020202020202020202020202020C0
:100A360020202020204B4559424F4152442020205F
:100A460020202020202020202020202020202020A0
:100A560020202020205541525430202020202020C4
:100A66002020202020202020202020202020202080
:100A760020202020204144433020202020202020F8
:100A86002020202020202020202020202020202060
:050A96002020202020BB
:100F5F00540000303132333435363738392E3D4175
:0B0F6F0042434445464748410014003F
:0B0F34007D01E4FF120F7B7F027E00B6
:100F3F00E4FDFCC3ED9FEC9E5015E4FBFA0BBB00E8
:0F0F4F00010ABA04F8BBB0F50DBD00010C80E437
:010F5E002270
:100003007F017E00120F3F7BFF7A097976120D354F
:0E00130043B0207FE87E03120F3F53B0DF2280
:100ECA0078247C007D007BFF7A0A791B7E007F20D4
:100EDA001204AB120D2F5384EF7FE87E03120F3FEB
:100EEA00438410752732120D2F5384DF7FE87E0367
:060EFA00120F3F438420AB
:010F000022CE
:100CAE007BFF7A097997120D35752480752500D34F
:100CBE00E52594F0E52494FF5056852582852483FE
:100CCE007455F0E0F526645560167BFF7A0979B805
:100CDE00120D35120030E584540F640F704280F609
:100CEE0085258285248374AAF0E0F52664AA601611
:100CFE007BFF7A0979B8120D35120030E584540F56
:100D0E00FFBF0F1C80F60525E52570A30524809FE7
:100D1E007BFF7A0979D9120D357FDC7E05120F3FE4
:010D2E0022A2
:100F01007BFF7A0979FA120D357FD07E07120F3FE8
:100F1100E4FF7E20782474FFF608DEFC7B007A0073
:100F21007924120D357FE87E03120F3F7D01E4FF26
:030F3100020F7B31
:060D2F007B007A0079242C
:060D35008B478A48894942
:100D3B007D80E4FF120F7BE4F54CF54DE4F54AF5AD
:100D4B004BE54DC4F8540FC868FFE54CC454F0484C
:100D5B00FEE54B2FFFE54A3EAB47AA48A9498F82D8
:100D6B00F5831204D1FD7F01120F7B054BE54B7010
:100D7B0002054AC39410E54A940040C57DC0E4FFC8
:100D8B00120F7B054DE54D7002054CC39402E54CEB
:040D9B00940040A8D8
:010D9F002231
:100F7B00EF6006D2B0C2B18004C2B0C2B18DA0D2B4
:0B0F8B00B27F017E00120F3FC2B222B5
:100DA000C2B2120F34C2B0D2B1E4F909B910FCD208
:100DB000B2E4F909B940FC85A024C2B2E52430E7C9
:100DC0002943B0205384EF7FF47E01120F3FD2B24B
:100DD000E4F909B940FC85A02453B0DF4384107FB7
:100DE000F47E01120F3FC2B280D2C2B27D06120F52
:100DF000367D0C120F367D38E4FF120F7B7F027EAA
:040E000000020F3F9E
:100B8B00E4F525752401AF24120A9B12002DE58490
:100B9B00540F640F60F5120026E584540F640F6048
:100BAB00EA1208068F25E5256524701D43840F1274
:100BBB000031E584540FFFBF0FF843B0207F287E30
:100BCB0000120F3F53B0DF80415384EF12002DE52D
:100BDB0084540FFFBF0FF843B0207F287E00120F05
:100BEB003F53B0DF7F64120F3F43B0207F28120FBB
:100BFB003F53B0DF7F64120F3F43B0207F28120FAB
:100C0B003F53B0DF438410020B960524E524D394A5
:060C1B00145003020B91CE
:010C210022B0
:100026007F0A7E00120F3F43840FE4F52AF52BFB6F
:02003600FDFFCC
:10003800C2B6B2B7B2B7B2B7B2B7B2B7B2B7E52BBA
:1000480024FF92B6B2B7B2B7E52A24FF92B6B2B788
:10005800B2B7EB24FF92B6B2B7B2B7ED24FF92B6AF
:0E006800B2B7B2B7EF24FF92B6B2B7B2B7226A
:1008060043840F752A01752B017B017D01E4FF12DC
:100816000038E584540FFF640F602EEF20E0047E5D
:10082600018021EFC31320E0047E028017EF13132B
:10083600543F20E0047E03800BEF131313541F2054
:10084600E0027E04AC06AF042243840F752A0175CC
:100856002B017B01E4FD7F01120038E584540FFF74
:10086600640F602EEF20E0047E018021EFC3132089
:10087600E0047E028017EF1313543F20E0047E034A
:10088600800BEF131313541F20E0027E04EE2404A2
:10089600FF2243840F752A01752B01E4FB7D017F3E
:1008A60001120038E584540FFF640F602EEF20E03C
:1008B600047E018021EFC31320E0047E028017EF3F
:1008C6001313543F20E0047E03800BEF13131354DD
:1008D6001F20E0027E04EE2408FF2243840FE4F585
:1008E6002A752B017B017D017F01120038E58454B6
:1008F6000FFF640F602EEF20E0047E018021EFC31E
:100906001320E0047E028017EF1313543F20E00407
:100916007E03800BEF131313541F20E0027E04EEB8
:10092600240CFF2243840F752A01E4F52B7B017DFD
:10093600017F01120038E584540FFF640F602EEF2B
:1009460020E0047E018021EFC31320E0047E0280B4
:1009560017EF1313543F20E0047E03800BEF1313AD
:0F09660013541F20E0027E04EE2410FF22AF0482
:01097500225F
:020A9B008F26A4
:100A9D0078277C007D007BFF7A0A793B7E007F20E2
:100AAD001204AB120F34E52614B414004003020BEC
:100ABD0082900ACC75F003A4C58325F0C58373021B
:100ACD000B08020B0D020B12020B17020B1C020B73
:100ADD0021020B26020B2B020B30020B35020B3AB7
:100AED00020B3F020B44020B4C020B54020B5C0237
:100AFD000B64020B6C020B74020B7C753730807526
:100B0D007537318070753732806B75373380667508
:100B1D0037348061753735805C753736805775375A
:100B2D00378052753738804D753739804875372E77
:100B3D00804375373D803E75374675383180367543
:100B4D003746753832802E753746753833802675A1
:100B5D003746753834801E753746753835801675AD
:100B6D003746753836800E753746753837800675B9
:0E0B7D0037467538387B007A007927020D352F
:0C0FFF00C2AC8F993099FDC299D2AC228F
:100E040012002DE584540F640F60F55391FB12001A
:100E140026E584540F640F60E7120806A907120040
:100E24002DE584540FFFBF0FF843B0207F287E00C8
:100E3400120F3F53B0DF74FF29F582E434FFF583CA
:070E4400E0FF120FFF80B96F
:03002300020E8B3F
:100E8B00C0E0C0F0C083C082C0D075D000C000C02D
:0D0E9B0001C002C003C004C005C006C007AE
:070EA800AF99120E4BC29836
:100EAF00D007D006D005D004D003D002D001D00097
:0B0EBF00D0D0D082D083D0F0D0E03241
:020E4B008F080E
:100E4D0078657C007D017BFF7A0A795B7E007F20CF
:100E5D001204ABE508C394414015E508D3944850FE
:100E6D000E9000757446F0E50824F0A3F08006900E
:0E0E7D000075E508F07B017A007965020D35FD
:03007B0002051863
:10051800C0E0C0F0C083C082C0D075D000C000C0A9
:0D05280001C002C003C004C005C006C0072A
:1005350078857C007D017BFF7A0A797B7E007F20B0
:100545001204ABC2ED53917FAFBF53070FEF7F008E
:10055500FEADBEEF2DFFE43EFEAD07FC1203217B91
:10056500337A3379537840120176E4FBFA7980784F
:100575004512027F8F138E128D118C10900014E09E
:10058500FB04F0EB25E025E02415F582E43400F5C5
:100595008312050C900014E0641460030207EBF06D
:1005A500900019E0FCA3E0FDA3E0FEA3E0FF9000AE
:1005B50015E0F8A3E0F9A3E0FAA3E0FB12008590AB
:1005C500001DE0F8A3E0F9A3E0FAA3E0FB12008523
:1005D500900021E0F8A3E0F9A3E0FAA3E0FB120004
:1005E50085900025E0F8A3E0F9A3E0FAA3E0FB126B
:1005F5000085900029E0F8A3E0F9A3E0FAA3E0FB69
:1006050012008590002DE0F8A3E0F9A3E0FAA3E03D
:10061500FB120085900031E0F8A3E0F9A3E0FAA30E
:10062500E0FB120085900035E0F8A3E0F9A3E0FABD
:10063500A3E0FB120085900039E0F8A3E0F9A3E000
:10064500FAA3E0FB120085E4FBFA79207841120257
:100655007F8F178E168D158C14900041E0FCA3E05A
:10066500FDA3E0FEA3E0FF90003DE0F8A3E0F9A3C1
:10067500E0FAA3E0FB120085900045E0F8A3E0F95D
:10068500A3E0FAA3E0FB120085900049E0F8A3E09F
:10069500F9A3E0FAA3E0FB12008590004DE0F8A372
:1006A500E0F9A3E0FAA3E0FB120085900051E0F821
:1006B500A3E0F9A3E0FAA3E0FB120085900055E062
:1006C500F8A3E0F9A3E0FAA3E0FB12008590005936
:1006D500E0F8A3E0F9A3E0FAA3E0FB12008590009F
:1006E5005DE0F8A3E0F9A3E0FAA3E0FB1200859032
:1006F5000061E0F8A3E0F9A3E0FAA3E0FB120085AE
:10070500E4FBFA7920784112027FAB17AA16A915E6
:10071500A814120085E4FBFAF9784012027F8F13C2
:100725008E128D118C1012035A8F1CAC1CE412030F
:1007350026A804A905AA06AB07AF13AE12AD11ACE6
:1007450010120081E4FBFA792078411201768F13AB
:100755008E128D118C1012035A8F1BAC1BE41203E1
:1007650026A804A905AA06AB07AF13AE12AD11ACB6
:1007750010120081E4FBFA792078411201768F137B
:100785008E128D118C1012035A8F1AAC1AE41203B3
:1007950026A804A905AA06AB07AF13AE12AD11AC86
:1007A50010120081E4FBFA792078411201768F134B
:1007B5008E128D118C1012035A8F19E51C2430905E
:1007C5000095F0A3742EF0E51B2430A3F0E51A2460
:1007D50030A3F0E5192430A3F0A37456F07B017A19
:0607E500007985120D35BC
:1007EB00D007D006D005D004D003D002D001D00062
:0B07FB00D0D0D082D083D0F0D0E0320C
:10007E000203C6E86480F8E933E83360110460F0E7
:10008E00ED33EC337009E8FCE9FDEAFEEBFF2204E8
:10009E0060DED3EB9FEA9EE99DE8C2E78CF0C2F7E3
:1000AE0095F0400CE8CCF8E9CDF9EACEFAEBCFFBAF
:1000BE0012039185D0F05804700320D5B3E8047074
:1000CE00075002B2D50203D092D5EC0460F7E4CC0F
:1000DE00C0E0C398F8603B94186008400DD0E0FB78
:1000EE000203A8E4FBFAC9FC8028E830E406E4C960
:1000FE00FBE4CAFCE830E305E4C9CACBFCE85407CC
:10010E006010F8C3E913F9EA13FAEB13FBEC13FCD6
:10011E00D8F130F52FC3E49CFCEF9BFFEE9AFEED79
:10012E0099FDD0E0FBEF4E4D4C701222DB03020323
:10013E00CDEC2CFCEF33FFEE33FEED33FDED30E76F
:10014E00EB0203A8EF2BFFEE3AFEED39FDD0E0FBFC
:10015E0050130BBB00030203D0ED13FDEE13FEEFA5
:08016E0013FFEC13FC0203A8CF
:10017600EC4D6011E8497017ED33EC3304600DE483
:10018600FCFFFEFD22E933E8330470F80203C612D1
:10019600039158046009E4CC2481500628500902D2
:1001A60003D02840030203CDC0E0EB4A7044B98077
:1001B60006D0E0FB0203BCEF4E701CBD8008EBFFCF
:1001C600EAFEE9FD80EBE98DF0A4FEE5F002025FB0
:1001D600E9CDF9EAFEEBFFEF89F0A4FCE5F0CE8964
:1001E600F0A42EFFE435F0CD89F0A42DFEE435F021
:1001F6008067EF4E7005BD80D780C3EF8BF0A4AC4F
:10020600F0EE8BF0A42CFCE435F0F8EF8AF0A42C89
:10021600E5F038FCE433CB8DF0A42CFCE5F03BF89C
:10022600EE8AF0A42CFCE5F038F8E433CF89F0A48C
:100236002CFCE5F038CF3400CE89F0A42FFFE5F092
:100246003EFEE433C98DF0A42EFEE5F039CD8AF0EA
:10025600A42FFFE5F03EFEE43DFD33D0E0FB500762
:100266000BBB000F0203D0EC2CFCEF33FFEE33FE8A
:06027600ED33FD0203A8B8
:10027C000203D0EC5D046005E8590470030203C668
:10028C00120391580460F6EC4860F2EC7004FDFE29
:10029C00FF22C860DB2481C85009C3986002500655
:1002AC000203CD9850CAF582E9294B4A7005AB82FE
:1002BC000203BC75F0007C1A7880C3EF9BEE9AEDBC
:1002CC0099400DC3EF9BFFEE9AFEED99FDE842F0CD
:1002DC00DC23ACF0D0E0FFD0E0FED0E0FDAB822020
:1002EC00E7101BEB60BAEC2CFCEF33FFEE33FEEDAA
:1002FC0033FD0203A8E803F830E705C0F075F00001
:10030C00EF2FFFEE33FEED33FD40B830E7C280AA8D
:10031C0075F020800E75F010800575F0087D007E5C
:10032C00007F003392D530D5031204FEEC3340101D
:10033C00EF33FFEE33FEED33FDEC33FCD5F0ED2265
:0E034C00E5F0247EA2D513CC92E7CDCEFF22A1
:10035A00EDD2E7CD33EC3392D524814006E4FFFE9B
:10036A00FDFC22FCE4CFCECDCC24E0501174FF80FA
:10037A00EDC3CC13CCCD13CDCE13CECF13CF047097
:07038A00F030D5DE0204FE95
:10039100E9D2E7C933E833F892D5EDD2E7CD33ECB2
:0703A10033FC5002B2D5222B
:1003A800EC30E7100FBF000C0EBE00080DBD0004B6
:1003B8000BEB6014A2D5EB13FCED92E7FD2274FF62
:1003C800FCFDFEFF22E480F8A2D574FF13FC7D80BB
:0303D800E480EFCF
:03000000020C22CD
:0C0C2200787FE4F6D8FD75814D020C6966
:1003DB00E709F608DFFA8046E709F208DFFA803E04
:1003EB0088828C83E709F0A3DFFA8032E309F608F1
:1003FB00DFFA8078E309F208DFFA807088828C8359
:10040B00E309F0A3DFFA806489828A83E0A3F6080C
:10041B00DFFA805889828A83E0A3F208DFFA804CE6
:10042B0080D280FA80C680D4806980F280338010BD
:10043B0080A680EA809A80A880DA80E280CA803326
:10044B0089828A83ECFAE493A3C8C582C8CCC5839E
:10045B00CCF0A3C8C582C8CCC583CCDFE9DEE7806E
:10046B000D89828A83E493A3F608DFF9ECFAA9F0ED
:10047B00EDFB2289828A83ECFAE0A3C8C582C8CC43
:10048B00C583CCF0A3C8C582C8CCC583CCDFEADE5C
:10049B00E880DB89828A83E493A3F208DFF980CCBE
:1004AB0088F0EF60010E4E60C388F0ED2402B404B7
:1004BB000050B9F582EB2402B4040050AF2323455E
:0604CB00822390042B7354
:1004D100BB010CE58229F582E5833AF583E02250E0
:1004E10006E92582F8E622BBFE06E92582F8E2222A
:0D04F100E58229F582E5833AF583E4932244
:0E04FE00C3E49FFFE49EFEE49DFDE49CFC220F
:0C050C00ECF0A3EDF0A3EEF0A3EFF02262
:100C2E00020FB0E493A3F8E493A34003F68001F21D
:100C3E0008DFF48029E493A3F85407240CC8C333C7
:100C4E00C4540F4420C8834004F456800146F6DF96
:100C5E00E4800B0102040810204080900F5FE47EB8
:100C6E00019360BCA3FF543F30E509541FFEE4938B
:100C7E00A360010ECF54C025E060A840B8E493A352
:100C8E00FAE493A3F8E493A3C8C582C8CAC583CA7D
:100C9E00F0A3C8C582C8CAC583CADFE9DEE780BE35
:010F7A000076
:00000001FF
